{
  "contractName": "DexSwapRouter",
  "abi": [
    {
      "inputs": [
        {
          "internalType": "address",
          "name": "_factory",
          "type": "address"
        },
        {
          "internalType": "address",
          "name": "_WETH",
          "type": "address"
        }
      ],
      "stateMutability": "nonpayable",
      "type": "constructor"
    },
    {
      "inputs": [],
      "name": "WETH",
      "outputs": [
        {
          "internalType": "address",
          "name": "",
          "type": "address"
        }
      ],
      "stateMutability": "view",
      "type": "function",
      "constant": true
    },
    {
      "inputs": [],
      "name": "factory",
      "outputs": [
        {
          "internalType": "address",
          "name": "",
          "type": "address"
        }
      ],
      "stateMutability": "view",
      "type": "function",
      "constant": true
    },
    {
      "stateMutability": "payable",
      "type": "receive",
      "payable": true
    },
    {
      "inputs": [
        {
          "internalType": "address",
          "name": "tokenA",
          "type": "address"
        },
        {
          "internalType": "address",
          "name": "tokenB",
          "type": "address"
        },
        {
          "internalType": "uint256",
          "name": "amountADesired",
          "type": "uint256"
        },
        {
          "internalType": "uint256",
          "name": "amountBDesired",
          "type": "uint256"
        },
        {
          "internalType": "uint256",
          "name": "amountAMin",
          "type": "uint256"
        },
        {
          "internalType": "uint256",
          "name": "amountBMin",
          "type": "uint256"
        },
        {
          "internalType": "address",
          "name": "to",
          "type": "address"
        },
        {
          "internalType": "uint256",
          "name": "deadline",
          "type": "uint256"
        }
      ],
      "name": "addLiquidity",
      "outputs": [
        {
          "internalType": "uint256",
          "name": "amountA",
          "type": "uint256"
        },
        {
          "internalType": "uint256",
          "name": "amountB",
          "type": "uint256"
        },
        {
          "internalType": "uint256",
          "name": "liquidity",
          "type": "uint256"
        }
      ],
      "stateMutability": "nonpayable",
      "type": "function"
    },
    {
      "inputs": [
        {
          "internalType": "address",
          "name": "token",
          "type": "address"
        },
        {
          "internalType": "uint256",
          "name": "amountTokenDesired",
          "type": "uint256"
        },
        {
          "internalType": "uint256",
          "name": "amountTokenMin",
          "type": "uint256"
        },
        {
          "internalType": "uint256",
          "name": "amountETHMin",
          "type": "uint256"
        },
        {
          "internalType": "address",
          "name": "to",
          "type": "address"
        },
        {
          "internalType": "uint256",
          "name": "deadline",
          "type": "uint256"
        }
      ],
      "name": "addLiquidityETH",
      "outputs": [
        {
          "internalType": "uint256",
          "name": "amountToken",
          "type": "uint256"
        },
        {
          "internalType": "uint256",
          "name": "amountETH",
          "type": "uint256"
        },
        {
          "internalType": "uint256",
          "name": "liquidity",
          "type": "uint256"
        }
      ],
      "stateMutability": "payable",
      "type": "function",
      "payable": true
    },
    {
      "inputs": [
        {
          "internalType": "address",
          "name": "tokenA",
          "type": "address"
        },
        {
          "internalType": "address",
          "name": "tokenB",
          "type": "address"
        },
        {
          "internalType": "uint256",
          "name": "liquidity",
          "type": "uint256"
        },
        {
          "internalType": "uint256",
          "name": "amountAMin",
          "type": "uint256"
        },
        {
          "internalType": "uint256",
          "name": "amountBMin",
          "type": "uint256"
        },
        {
          "internalType": "address",
          "name": "to",
          "type": "address"
        },
        {
          "internalType": "uint256",
          "name": "deadline",
          "type": "uint256"
        }
      ],
      "name": "removeLiquidity",
      "outputs": [
        {
          "internalType": "uint256",
          "name": "amountA",
          "type": "uint256"
        },
        {
          "internalType": "uint256",
          "name": "amountB",
          "type": "uint256"
        }
      ],
      "stateMutability": "nonpayable",
      "type": "function"
    },
    {
      "inputs": [
        {
          "internalType": "address",
          "name": "token",
          "type": "address"
        },
        {
          "internalType": "uint256",
          "name": "liquidity",
          "type": "uint256"
        },
        {
          "internalType": "uint256",
          "name": "amountTokenMin",
          "type": "uint256"
        },
        {
          "internalType": "uint256",
          "name": "amountETHMin",
          "type": "uint256"
        },
        {
          "internalType": "address",
          "name": "to",
          "type": "address"
        },
        {
          "internalType": "uint256",
          "name": "deadline",
          "type": "uint256"
        }
      ],
      "name": "removeLiquidityETH",
      "outputs": [
        {
          "internalType": "uint256",
          "name": "amountToken",
          "type": "uint256"
        },
        {
          "internalType": "uint256",
          "name": "amountETH",
          "type": "uint256"
        }
      ],
      "stateMutability": "nonpayable",
      "type": "function"
    },
    {
      "inputs": [
        {
          "internalType": "address",
          "name": "tokenA",
          "type": "address"
        },
        {
          "internalType": "address",
          "name": "tokenB",
          "type": "address"
        },
        {
          "internalType": "uint256",
          "name": "liquidity",
          "type": "uint256"
        },
        {
          "internalType": "uint256",
          "name": "amountAMin",
          "type": "uint256"
        },
        {
          "internalType": "uint256",
          "name": "amountBMin",
          "type": "uint256"
        },
        {
          "internalType": "address",
          "name": "to",
          "type": "address"
        },
        {
          "internalType": "uint256",
          "name": "deadline",
          "type": "uint256"
        },
        {
          "internalType": "bool",
          "name": "approveMax",
          "type": "bool"
        },
        {
          "internalType": "uint8",
          "name": "v",
          "type": "uint8"
        },
        {
          "internalType": "bytes32",
          "name": "r",
          "type": "bytes32"
        },
        {
          "internalType": "bytes32",
          "name": "s",
          "type": "bytes32"
        }
      ],
      "name": "removeLiquidityWithPermit",
      "outputs": [
        {
          "internalType": "uint256",
          "name": "amountA",
          "type": "uint256"
        },
        {
          "internalType": "uint256",
          "name": "amountB",
          "type": "uint256"
        }
      ],
      "stateMutability": "nonpayable",
      "type": "function"
    },
    {
      "inputs": [
        {
          "internalType": "address",
          "name": "token",
          "type": "address"
        },
        {
          "internalType": "uint256",
          "name": "liquidity",
          "type": "uint256"
        },
        {
          "internalType": "uint256",
          "name": "amountTokenMin",
          "type": "uint256"
        },
        {
          "internalType": "uint256",
          "name": "amountETHMin",
          "type": "uint256"
        },
        {
          "internalType": "address",
          "name": "to",
          "type": "address"
        },
        {
          "internalType": "uint256",
          "name": "deadline",
          "type": "uint256"
        },
        {
          "internalType": "bool",
          "name": "approveMax",
          "type": "bool"
        },
        {
          "internalType": "uint8",
          "name": "v",
          "type": "uint8"
        },
        {
          "internalType": "bytes32",
          "name": "r",
          "type": "bytes32"
        },
        {
          "internalType": "bytes32",
          "name": "s",
          "type": "bytes32"
        }
      ],
      "name": "removeLiquidityETHWithPermit",
      "outputs": [
        {
          "internalType": "uint256",
          "name": "amountToken",
          "type": "uint256"
        },
        {
          "internalType": "uint256",
          "name": "amountETH",
          "type": "uint256"
        }
      ],
      "stateMutability": "nonpayable",
      "type": "function"
    },
    {
      "inputs": [
        {
          "internalType": "address",
          "name": "token",
          "type": "address"
        },
        {
          "internalType": "uint256",
          "name": "liquidity",
          "type": "uint256"
        },
        {
          "internalType": "uint256",
          "name": "amountTokenMin",
          "type": "uint256"
        },
        {
          "internalType": "uint256",
          "name": "amountETHMin",
          "type": "uint256"
        },
        {
          "internalType": "address",
          "name": "to",
          "type": "address"
        },
        {
          "internalType": "uint256",
          "name": "deadline",
          "type": "uint256"
        }
      ],
      "name": "removeLiquidityETHSupportingFeeOnTransferTokens",
      "outputs": [
        {
          "internalType": "uint256",
          "name": "amountETH",
          "type": "uint256"
        }
      ],
      "stateMutability": "nonpayable",
      "type": "function"
    },
    {
      "inputs": [
        {
          "internalType": "address",
          "name": "token",
          "type": "address"
        },
        {
          "internalType": "uint256",
          "name": "liquidity",
          "type": "uint256"
        },
        {
          "internalType": "uint256",
          "name": "amountTokenMin",
          "type": "uint256"
        },
        {
          "internalType": "uint256",
          "name": "amountETHMin",
          "type": "uint256"
        },
        {
          "internalType": "address",
          "name": "to",
          "type": "address"
        },
        {
          "internalType": "uint256",
          "name": "deadline",
          "type": "uint256"
        },
        {
          "internalType": "bool",
          "name": "approveMax",
          "type": "bool"
        },
        {
          "internalType": "uint8",
          "name": "v",
          "type": "uint8"
        },
        {
          "internalType": "bytes32",
          "name": "r",
          "type": "bytes32"
        },
        {
          "internalType": "bytes32",
          "name": "s",
          "type": "bytes32"
        }
      ],
      "name": "removeLiquidityETHWithPermitSupportingFeeOnTransferTokens",
      "outputs": [
        {
          "internalType": "uint256",
          "name": "amountETH",
          "type": "uint256"
        }
      ],
      "stateMutability": "nonpayable",
      "type": "function"
    },
    {
      "inputs": [
        {
          "internalType": "uint256",
          "name": "amountIn",
          "type": "uint256"
        },
        {
          "internalType": "uint256",
          "name": "amountOutMin",
          "type": "uint256"
        },
        {
          "internalType": "address[]",
          "name": "path",
          "type": "address[]"
        },
        {
          "internalType": "address",
          "name": "to",
          "type": "address"
        },
        {
          "internalType": "uint256",
          "name": "deadline",
          "type": "uint256"
        }
      ],
      "name": "swapExactTokensForTokens",
      "outputs": [
        {
          "internalType": "uint256[]",
          "name": "amounts",
          "type": "uint256[]"
        }
      ],
      "stateMutability": "nonpayable",
      "type": "function"
    },
    {
      "inputs": [
        {
          "internalType": "uint256",
          "name": "amountOut",
          "type": "uint256"
        },
        {
          "internalType": "uint256",
          "name": "amountInMax",
          "type": "uint256"
        },
        {
          "internalType": "address[]",
          "name": "path",
          "type": "address[]"
        },
        {
          "internalType": "address",
          "name": "to",
          "type": "address"
        },
        {
          "internalType": "uint256",
          "name": "deadline",
          "type": "uint256"
        }
      ],
      "name": "swapTokensForExactTokens",
      "outputs": [
        {
          "internalType": "uint256[]",
          "name": "amounts",
          "type": "uint256[]"
        }
      ],
      "stateMutability": "nonpayable",
      "type": "function"
    },
    {
      "inputs": [
        {
          "internalType": "uint256",
          "name": "amountOutMin",
          "type": "uint256"
        },
        {
          "internalType": "address[]",
          "name": "path",
          "type": "address[]"
        },
        {
          "internalType": "address",
          "name": "to",
          "type": "address"
        },
        {
          "internalType": "uint256",
          "name": "deadline",
          "type": "uint256"
        }
      ],
      "name": "swapExactETHForTokens",
      "outputs": [
        {
          "internalType": "uint256[]",
          "name": "amounts",
          "type": "uint256[]"
        }
      ],
      "stateMutability": "payable",
      "type": "function",
      "payable": true
    },
    {
      "inputs": [
        {
          "internalType": "uint256",
          "name": "amountOut",
          "type": "uint256"
        },
        {
          "internalType": "uint256",
          "name": "amountInMax",
          "type": "uint256"
        },
        {
          "internalType": "address[]",
          "name": "path",
          "type": "address[]"
        },
        {
          "internalType": "address",
          "name": "to",
          "type": "address"
        },
        {
          "internalType": "uint256",
          "name": "deadline",
          "type": "uint256"
        }
      ],
      "name": "swapTokensForExactETH",
      "outputs": [
        {
          "internalType": "uint256[]",
          "name": "amounts",
          "type": "uint256[]"
        }
      ],
      "stateMutability": "nonpayable",
      "type": "function"
    },
    {
      "inputs": [
        {
          "internalType": "uint256",
          "name": "amountIn",
          "type": "uint256"
        },
        {
          "internalType": "uint256",
          "name": "amountOutMin",
          "type": "uint256"
        },
        {
          "internalType": "address[]",
          "name": "path",
          "type": "address[]"
        },
        {
          "internalType": "address",
          "name": "to",
          "type": "address"
        },
        {
          "internalType": "uint256",
          "name": "deadline",
          "type": "uint256"
        }
      ],
      "name": "swapExactTokensForETH",
      "outputs": [
        {
          "internalType": "uint256[]",
          "name": "amounts",
          "type": "uint256[]"
        }
      ],
      "stateMutability": "nonpayable",
      "type": "function"
    },
    {
      "inputs": [
        {
          "internalType": "uint256",
          "name": "amountOut",
          "type": "uint256"
        },
        {
          "internalType": "address[]",
          "name": "path",
          "type": "address[]"
        },
        {
          "internalType": "address",
          "name": "to",
          "type": "address"
        },
        {
          "internalType": "uint256",
          "name": "deadline",
          "type": "uint256"
        }
      ],
      "name": "swapETHForExactTokens",
      "outputs": [
        {
          "internalType": "uint256[]",
          "name": "amounts",
          "type": "uint256[]"
        }
      ],
      "stateMutability": "payable",
      "type": "function",
      "payable": true
    },
    {
      "inputs": [
        {
          "internalType": "uint256",
          "name": "amountIn",
          "type": "uint256"
        },
        {
          "internalType": "uint256",
          "name": "amountOutMin",
          "type": "uint256"
        },
        {
          "internalType": "address[]",
          "name": "path",
          "type": "address[]"
        },
        {
          "internalType": "address",
          "name": "to",
          "type": "address"
        },
        {
          "internalType": "uint256",
          "name": "deadline",
          "type": "uint256"
        }
      ],
      "name": "swapExactTokensForTokensSupportingFeeOnTransferTokens",
      "outputs": [],
      "stateMutability": "nonpayable",
      "type": "function"
    },
    {
      "inputs": [
        {
          "internalType": "uint256",
          "name": "amountOutMin",
          "type": "uint256"
        },
        {
          "internalType": "address[]",
          "name": "path",
          "type": "address[]"
        },
        {
          "internalType": "address",
          "name": "to",
          "type": "address"
        },
        {
          "internalType": "uint256",
          "name": "deadline",
          "type": "uint256"
        }
      ],
      "name": "swapExactETHForTokensSupportingFeeOnTransferTokens",
      "outputs": [],
      "stateMutability": "payable",
      "type": "function",
      "payable": true
    },
    {
      "inputs": [
        {
          "internalType": "uint256",
          "name": "amountIn",
          "type": "uint256"
        },
        {
          "internalType": "uint256",
          "name": "amountOutMin",
          "type": "uint256"
        },
        {
          "internalType": "address[]",
          "name": "path",
          "type": "address[]"
        },
        {
          "internalType": "address",
          "name": "to",
          "type": "address"
        },
        {
          "internalType": "uint256",
          "name": "deadline",
          "type": "uint256"
        }
      ],
      "name": "swapExactTokensForETHSupportingFeeOnTransferTokens",
      "outputs": [],
      "stateMutability": "nonpayable",
      "type": "function"
    },
    {
      "inputs": [
        {
          "internalType": "uint256",
          "name": "amountA",
          "type": "uint256"
        },
        {
          "internalType": "uint256",
          "name": "reserveA",
          "type": "uint256"
        },
        {
          "internalType": "uint256",
          "name": "reserveB",
          "type": "uint256"
        }
      ],
      "name": "quote",
      "outputs": [
        {
          "internalType": "uint256",
          "name": "amountB",
          "type": "uint256"
        }
      ],
      "stateMutability": "pure",
      "type": "function",
      "constant": true
    },
    {
      "inputs": [
        {
          "internalType": "uint256",
          "name": "amountIn",
          "type": "uint256"
        },
        {
          "internalType": "uint256",
          "name": "reserveIn",
          "type": "uint256"
        },
        {
          "internalType": "uint256",
          "name": "reserveOut",
          "type": "uint256"
        },
        {
          "internalType": "uint256",
          "name": "swapFee",
          "type": "uint256"
        }
      ],
      "name": "getAmountOut",
      "outputs": [
        {
          "internalType": "uint256",
          "name": "amountOut",
          "type": "uint256"
        }
      ],
      "stateMutability": "pure",
      "type": "function",
      "constant": true
    },
    {
      "inputs": [
        {
          "internalType": "uint256",
          "name": "amountOut",
          "type": "uint256"
        },
        {
          "internalType": "uint256",
          "name": "reserveIn",
          "type": "uint256"
        },
        {
          "internalType": "uint256",
          "name": "reserveOut",
          "type": "uint256"
        },
        {
          "internalType": "uint256",
          "name": "swapFee",
          "type": "uint256"
        }
      ],
      "name": "getAmountIn",
      "outputs": [
        {
          "internalType": "uint256",
          "name": "amountIn",
          "type": "uint256"
        }
      ],
      "stateMutability": "pure",
      "type": "function",
      "constant": true
    },
    {
      "inputs": [
        {
          "internalType": "uint256",
          "name": "amountIn",
          "type": "uint256"
        },
        {
          "internalType": "address[]",
          "name": "path",
          "type": "address[]"
        }
      ],
      "name": "getAmountsOut",
      "outputs": [
        {
          "internalType": "uint256[]",
          "name": "amounts",
          "type": "uint256[]"
        }
      ],
      "stateMutability": "view",
      "type": "function",
      "constant": true
    },
    {
      "inputs": [
        {
          "internalType": "uint256",
          "name": "amountOut",
          "type": "uint256"
        },
        {
          "internalType": "address[]",
          "name": "path",
          "type": "address[]"
        }
      ],
      "name": "getAmountsIn",
      "outputs": [
        {
          "internalType": "uint256[]",
          "name": "amounts",
          "type": "uint256[]"
        }
      ],
      "stateMutability": "view",
      "type": "function",
      "constant": true
    }
  ],
  "bytecode": "0x60c060405234801561001057600080fd5b5060405162004855380380620048558339818101604052604081101561003557600080fd5b5080516020909101516001600160601b0319606092831b8116608052911b1660a05260805160601c60a05160601c6146d0620001856000398061015f5280610cf05280610d2b5280610e0d528061102b52806113b5528061154052806118ef52806119ca5280611aa45280611b725280611cb85280611d405280611f6f5280611ff252806120a652806121725280612207528061227b528061275e52806129c85280612a1e5280612a525280612ac65280612c545280612d975280612e1f525080610e9b5280610f7252806110f1528061112a52806112655280611443528061151e528061168e5280611c055280611d725280611ebf52806122ad52806124eb52806126e3528061270c528061273c52806128a952806129fc5280612ce75280612e51528061363352806136765280613b3c5280613d1d528061403652806140ef52806141a252506146d06000f3fe60806040526004361061014f5760003560e01c80638803dbee116100b6578063c45a01551161006f578063c45a015514610a1c578063d06ca61f14610a31578063ded9382a14610ae6578063e8e3370014610b59578063f305d71914610bd9578063fb3bdb4114610c1f57610188565b80638803dbee146107eb578063ad5c464814610881578063ad615dec146108b2578063af2979eb146108e8578063b6f9de951461093b578063baa2abde146109bf57610188565b806352707d8c1161010857806352707d8c1461053e578063571fd0121461058c5780635b0d5984146105c85780635c11d7951461063b578063791ac947146106d15780637ff36ab51461076757610188565b806302751cec1461018d57806318cbafe5146101f95780631f00ca74146102df5780632195995c1461039457806338ed1739146104125780634a25d94a146104a857610188565b3661018857336001600160a01b037f0000000000000000000000000000000000000000000000000000000000000000161461018657fe5b005b600080fd5b34801561019957600080fd5b506101e0600480360360c08110156101b057600080fd5b506001600160a01b0381358116916020810135916040820135916060810135916080820135169060a00135610ca3565b6040805192835260208301919091528051918290030190f35b34801561020557600080fd5b5061028f600480360360a081101561021c57600080fd5b813591602081013591810190606081016040820135600160201b81111561024257600080fd5b82018360208201111561025457600080fd5b803590602001918460208302840111600160201b8311171561027557600080fd5b91935091506001600160a01b038135169060200135610dbd565b60408051602080825283518183015283519192839290830191858101910280838360005b838110156102cb5781810151838201526020016102b3565b505050509050019250505060405180910390f35b3480156102eb57600080fd5b5061028f6004803603604081101561030257600080fd5b81359190810190604081016020820135600160201b81111561032357600080fd5b82018360208201111561033557600080fd5b803590602001918460208302840111600160201b8311171561035657600080fd5b9190808060200260200160405190810160405280939291908181526020018383602002808284376000920191909152509295506110ea945050505050565b3480156103a057600080fd5b506101e060048036036101608110156103b857600080fd5b506001600160a01b038135811691602081013582169160408201359160608101359160808201359160a08101359091169060c08101359060e081013515159060ff6101008201351690610120810135906101400135611120565b34801561041e57600080fd5b5061028f600480360360a081101561043557600080fd5b813591602081013591810190606081016040820135600160201b81111561045b57600080fd5b82018360208201111561046d57600080fd5b803590602001918460208302840111600160201b8311171561048e57600080fd5b91935091506001600160a01b03813516906020013561121a565b3480156104b457600080fd5b5061028f600480360360a08110156104cb57600080fd5b813591602081013591810190606081016040820135600160201b8111156104f157600080fd5b82018360208201111561050357600080fd5b803590602001918460208302840111600160201b8311171561052457600080fd5b91935091506001600160a01b038135169060200135611365565b34801561054a57600080fd5b5061057a6004803603608081101561056157600080fd5b50803590602081013590604081013590606001356114f1565b60408051918252519081900360200190f35b34801561059857600080fd5b5061057a600480360360808110156105af57600080fd5b5080359060208101359060408101359060600135611508565b3480156105d457600080fd5b5061057a60048036036101408110156105ec57600080fd5b506001600160a01b0381358116916020810135916040820135916060810135916080820135169060a08101359060c081013515159060ff60e08201351690610100810135906101200135611516565b34801561064757600080fd5b50610186600480360360a081101561065e57600080fd5b813591602081013591810190606081016040820135600160201b81111561068457600080fd5b82018360208201111561069657600080fd5b803590602001918460208302840111600160201b831117156106b757600080fd5b91935091506001600160a01b038135169060200135611624565b3480156106dd57600080fd5b50610186600480360360a08110156106f457600080fd5b813591602081013591810190606081016040820135600160201b81111561071a57600080fd5b82018360208201111561072c57600080fd5b803590602001918460208302840111600160201b8311171561074d57600080fd5b91935091506001600160a01b0381351690602001356118a1565b61028f6004803603608081101561077d57600080fd5b81359190810190604081016020820135600160201b81111561079e57600080fd5b8201836020820111156107b057600080fd5b803590602001918460208302840111600160201b831117156107d157600080fd5b91935091506001600160a01b038135169060200135611b2a565b3480156107f757600080fd5b5061028f600480360360a081101561080e57600080fd5b813591602081013591810190606081016040820135600160201b81111561083457600080fd5b82018360208201111561084657600080fd5b803590602001918460208302840111600160201b8311171561086757600080fd5b91935091506001600160a01b038135169060200135611e74565b34801561088d57600080fd5b50610896611f6d565b604080516001600160a01b039092168252519081900360200190f35b3480156108be57600080fd5b5061057a600480360360608110156108d557600080fd5b5080359060208101359060400135611f91565b3480156108f457600080fd5b5061057a600480360360c081101561090b57600080fd5b506001600160a01b0381358116916020810135916040820135916060810135916080820135169060a00135611fa6565b6101866004803603608081101561095157600080fd5b81359190810190604081016020820135600160201b81111561097257600080fd5b82018360208201111561098457600080fd5b803590602001918460208302840111600160201b831117156109a557600080fd5b91935091506001600160a01b03813516906020013561212c565b3480156109cb57600080fd5b506101e0600480360360e08110156109e257600080fd5b506001600160a01b038135811691602081013582169160408201359160608101359160808201359160a08101359091169060c0013561249d565b348015610a2857600080fd5b506108966126e1565b348015610a3d57600080fd5b5061028f60048036036040811015610a5457600080fd5b81359190810190604081016020820135600160201b811115610a7557600080fd5b820183602082011115610a8757600080fd5b803590602001918460208302840111600160201b83111715610aa857600080fd5b919080806020026020016040519081016040528093929190818152602001838360200280828437600092019190915250929550612705945050505050565b348015610af257600080fd5b506101e06004803603610140811015610b0a57600080fd5b506001600160a01b0381358116916020810135916040820135916060810135916080820135169060a08101359060c081013515159060ff60e08201351690610100810135906101200135612732565b348015610b6557600080fd5b50610bbb6004803603610100811015610b7d57600080fd5b506001600160a01b038135811691602081013582169160408201359160608101359160808201359160a08101359160c0820135169060e00135612846565b60408051938452602084019290925282820152519081900360600190f35b610bbb600480360360c0811015610bef57600080fd5b506001600160a01b0381358116916020810135916040820135916060810135916080820135169060a00135612979565b61028f60048036036080811015610c3557600080fd5b81359190810190604081016020820135600160201b811115610c5657600080fd5b820183602082011115610c6857600080fd5b803590602001918460208302840111600160201b83111715610c8957600080fd5b91935091506001600160a01b038135169060200135612c0c565b6000808242811015610cea576040805162461bcd60e51b815260206004820152601660248201526000805160206145a2833981519152604482015290519081900360640190fd5b610d19897f00000000000000000000000000000000000000000000000000000000000000008a8a8a308a61249d565b9093509150610d29898685612f85565b7f00000000000000000000000000000000000000000000000000000000000000006001600160a01b0316632e1a7d4d836040518263ffffffff1660e01b815260040180828152602001915050600060405180830381600087803b158015610d8f57600080fd5b505af1158015610da3573d6000803e3d6000fd5b50505050610db185836130ef565b50965096945050505050565b60608142811015610e03576040805162461bcd60e51b815260206004820152601660248201526000805160206145a2833981519152604482015290519081900360640190fd5b6001600160a01b037f00000000000000000000000000000000000000000000000000000000000000001686866000198101818110610e3d57fe5b905060200201356001600160a01b03166001600160a01b031614610e96576040805162461bcd60e51b815260206004820152601b6024820152600080516020614634833981519152604482015290519081900360640190fd5b610ef47f0000000000000000000000000000000000000000000000000000000000000000898888808060200260200160405190810160405280939291908181526020018383602002808284376000920191909152506131e792505050565b91508682600184510381518110610f0757fe5b60200260200101511015610f4c5760405162461bcd60e51b815260040180806020018281038252602981526020018061460b6029913960400191505060405180910390fd5b610fea86866000818110610f5c57fe5b905060200201356001600160a01b031633610fd07f00000000000000000000000000000000000000000000000000000000000000008a8a6000818110610f9e57fe5b905060200201356001600160a01b03168b8b6001818110610fbb57fe5b905060200201356001600160a01b0316613367565b85600081518110610fdd57fe5b6020026020010151613427565b61102982878780806020026020016040519081016040528093929190818152602001838360200280828437600092019190915250309250613584915050565b7f00000000000000000000000000000000000000000000000000000000000000006001600160a01b0316632e1a7d4d8360018551038151811061106857fe5b60200260200101516040518263ffffffff1660e01b815260040180828152602001915050600060405180830381600087803b1580156110a657600080fd5b505af11580156110ba573d6000803e3d6000fd5b505050506110df84836001855103815181106110d257fe5b60200260200101516130ef565b509695505050505050565b60606111177f000000000000000000000000000000000000000000000000000000000000000084846137c1565b90505b92915050565b60008060006111507f00000000000000000000000000000000000000000000000000000000000000008f8f613367565b905060008761115f578c611163565b6000195b6040805163d505accf60e01b815233600482015230602482015260448101839052606481018c905260ff8a16608482015260a4810189905260c4810188905290519192506001600160a01b0384169163d505accf9160e48082019260009290919082900301818387803b1580156111d957600080fd5b505af11580156111ed573d6000803e3d6000fd5b505050506112008f8f8f8f8f8f8f61249d565b809450819550505050509b509b9950505050505050505050565b60608142811015611260576040805162461bcd60e51b815260206004820152601660248201526000805160206145a2833981519152604482015290519081900360640190fd5b6112be7f0000000000000000000000000000000000000000000000000000000000000000898888808060200260200160405190810160405280939291908181526020018383602002808284376000920191909152506131e792505050565b915086826001845103815181106112d157fe5b602002602001015110156113165760405162461bcd60e51b815260040180806020018281038252602981526020018061460b6029913960400191505060405180910390fd5b61132686866000818110610f5c57fe5b6110df82878780806020026020016040519081016040528093929190818152602001838360200280828437600092019190915250899250613584915050565b606081428110156113ab576040805162461bcd60e51b815260206004820152601660248201526000805160206145a2833981519152604482015290519081900360640190fd5b6001600160a01b037f000000000000000000000000000000000000000000000000000000000000000016868660001981018181106113e557fe5b905060200201356001600160a01b03166001600160a01b03161461143e576040805162461bcd60e51b815260206004820152601b6024820152600080516020614634833981519152604482015290519081900360640190fd5b61149c7f0000000000000000000000000000000000000000000000000000000000000000898888808060200260200160405190810160405280939291908181526020018383602002808284376000920191909152506137c192505050565b915086826000815181106114ac57fe5b60200260200101511115610f4c5760405162461bcd60e51b81526004018080602001828103825260258152602001806144bf6025913960400191505060405180910390fd5b60006114ff85858585613920565b95945050505050565b60006114ff85858585613a03565b6000806115647f00000000000000000000000000000000000000000000000000000000000000008d7f0000000000000000000000000000000000000000000000000000000000000000613367565b9050600086611573578b611577565b6000195b6040805163d505accf60e01b815233600482015230602482015260448101839052606481018b905260ff8916608482015260a4810188905260c4810187905290519192506001600160a01b0384169163d505accf9160e48082019260009290919082900301818387803b1580156115ed57600080fd5b505af1158015611601573d6000803e3d6000fd5b505050506116138d8d8d8d8d8d611fa6565b9d9c50505050505050505050505050565b8042811015611668576040805162461bcd60e51b815260206004820152601660248201526000805160206145a2833981519152604482015290519081900360640190fd5b6116dd8585600081811061167857fe5b905060200201356001600160a01b0316336116d77f0000000000000000000000000000000000000000000000000000000000000000898960008181106116ba57fe5b905060200201356001600160a01b03168a8a6001818110610fbb57fe5b8a613427565b6000858560001981018181106116ef57fe5b905060200201356001600160a01b03166001600160a01b03166370a08231856040518263ffffffff1660e01b815260040180826001600160a01b0316815260200191505060206040518083038186803b15801561174b57600080fd5b505afa15801561175f573d6000803e3d6000fd5b505050506040513d602081101561177557600080fd5b505160408051602088810282810182019093528882529293506117b7929091899189918291850190849080828437600092019190915250889250613ae5915050565b8661185a82888860001981018181106117cc57fe5b905060200201356001600160a01b03166001600160a01b03166370a08231886040518263ffffffff1660e01b815260040180826001600160a01b0316815260200191505060206040518083038186803b15801561182857600080fd5b505afa15801561183c573d6000803e3d6000fd5b505050506040513d602081101561185257600080fd5b505190613e52565b10156118975760405162461bcd60e51b815260040180806020018281038252602981526020018061460b6029913960400191505060405180910390fd5b5050505050505050565b80428110156118e5576040805162461bcd60e51b815260206004820152601660248201526000805160206145a2833981519152604482015290519081900360640190fd5b6001600160a01b037f0000000000000000000000000000000000000000000000000000000000000000168585600019810181811061191f57fe5b905060200201356001600160a01b03166001600160a01b031614611978576040805162461bcd60e51b815260206004820152601b6024820152600080516020614634833981519152604482015290519081900360640190fd5b6119888585600081811061167857fe5b6119c6858580806020026020016040519081016040528093929190818152602001838360200280828437600092019190915250309250613ae5915050565b60007f00000000000000000000000000000000000000000000000000000000000000006001600160a01b03166370a08231306040518263ffffffff1660e01b815260040180826001600160a01b0316815260200191505060206040518083038186803b158015611a3557600080fd5b505afa158015611a49573d6000803e3d6000fd5b505050506040513d6020811015611a5f57600080fd5b5051905086811015611aa25760405162461bcd60e51b815260040180806020018281038252602981526020018061460b6029913960400191505060405180910390fd5b7f00000000000000000000000000000000000000000000000000000000000000006001600160a01b0316632e1a7d4d826040518263ffffffff1660e01b815260040180828152602001915050600060405180830381600087803b158015611b0857600080fd5b505af1158015611b1c573d6000803e3d6000fd5b5050505061189784826130ef565b60608142811015611b70576040805162461bcd60e51b815260206004820152601660248201526000805160206145a2833981519152604482015290519081900360640190fd5b7f00000000000000000000000000000000000000000000000000000000000000006001600160a01b031686866000818110611ba757fe5b905060200201356001600160a01b03166001600160a01b031614611c00576040805162461bcd60e51b815260206004820152601b6024820152600080516020614634833981519152604482015290519081900360640190fd5b611c5e7f0000000000000000000000000000000000000000000000000000000000000000348888808060200260200160405190810160405280939291908181526020018383602002808284376000920191909152506131e792505050565b91508682600184510381518110611c7157fe5b60200260200101511015611cb65760405162461bcd60e51b815260040180806020018281038252602981526020018061460b6029913960400191505060405180910390fd5b7f00000000000000000000000000000000000000000000000000000000000000006001600160a01b031663d0e30db083600081518110611cf257fe5b60200260200101516040518263ffffffff1660e01b81526004016000604051808303818588803b158015611d2557600080fd5b505af1158015611d39573d6000803e3d6000fd5b50505050507f00000000000000000000000000000000000000000000000000000000000000006001600160a01b031663a9059cbb611d9e7f0000000000000000000000000000000000000000000000000000000000000000898960008181106116ba57fe5b84600081518110611dab57fe5b60200260200101516040518363ffffffff1660e01b815260040180836001600160a01b0316815260200182815260200192505050602060405180830381600087803b158015611df957600080fd5b505af1158015611e0d573d6000803e3d6000fd5b505050506040513d6020811015611e2357600080fd5b5051611e2b57fe5b611e6a82878780806020026020016040519081016040528093929190818152602001838360200280828437600092019190915250899250613584915050565b5095945050505050565b60608142811015611eba576040805162461bcd60e51b815260206004820152601660248201526000805160206145a2833981519152604482015290519081900360640190fd5b611f187f0000000000000000000000000000000000000000000000000000000000000000898888808060200260200160405190810160405280939291908181526020018383602002808284376000920191909152506137c192505050565b91508682600081518110611f2857fe5b602002602001015111156113165760405162461bcd60e51b81526004018080602001828103825260258152602001806144bf6025913960400191505060405180910390fd5b7f000000000000000000000000000000000000000000000000000000000000000081565b6000611f9e848484613ea2565b949350505050565b60008142811015611fec576040805162461bcd60e51b815260206004820152601660248201526000805160206145a2833981519152604482015290519081900360640190fd5b61201b887f0000000000000000000000000000000000000000000000000000000000000000898989308961249d565b9050809250506120a488858a6001600160a01b03166370a08231306040518263ffffffff1660e01b815260040180826001600160a01b0316815260200191505060206040518083038186803b15801561207357600080fd5b505afa158015612087573d6000803e3d6000fd5b505050506040513d602081101561209d57600080fd5b5051612f85565b7f00000000000000000000000000000000000000000000000000000000000000006001600160a01b0316632e1a7d4d836040518263ffffffff1660e01b815260040180828152602001915050600060405180830381600087803b15801561210a57600080fd5b505af115801561211e573d6000803e3d6000fd5b505050506110df84836130ef565b8042811015612170576040805162461bcd60e51b815260206004820152601660248201526000805160206145a2833981519152604482015290519081900360640190fd5b7f00000000000000000000000000000000000000000000000000000000000000006001600160a01b0316858560008181106121a757fe5b905060200201356001600160a01b03166001600160a01b031614612200576040805162461bcd60e51b815260206004820152601b6024820152600080516020614634833981519152604482015290519081900360640190fd5b60003490507f00000000000000000000000000000000000000000000000000000000000000006001600160a01b031663d0e30db0826040518263ffffffff1660e01b81526004016000604051808303818588803b15801561226057600080fd5b505af1158015612274573d6000803e3d6000fd5b50505050507f00000000000000000000000000000000000000000000000000000000000000006001600160a01b031663a9059cbb6122d97f0000000000000000000000000000000000000000000000000000000000000000898960008181106116ba57fe5b836040518363ffffffff1660e01b815260040180836001600160a01b0316815260200182815260200192505050602060405180830381600087803b15801561232057600080fd5b505af1158015612334573d6000803e3d6000fd5b505050506040513d602081101561234a57600080fd5b505161235257fe5b60008686600019810181811061236457fe5b905060200201356001600160a01b03166001600160a01b03166370a08231866040518263ffffffff1660e01b815260040180826001600160a01b0316815260200191505060206040518083038186803b1580156123c057600080fd5b505afa1580156123d4573d6000803e3d6000fd5b505050506040513d60208110156123ea57600080fd5b5051604080516020898102828101820190935289825292935061242c9290918a918a918291850190849080828437600092019190915250899250613ae5915050565b8761185a828989600019810181811061244157fe5b905060200201356001600160a01b03166001600160a01b03166370a08231896040518263ffffffff1660e01b815260040180826001600160a01b0316815260200191505060206040518083038186803b15801561182857600080fd5b60008082428110156124e4576040805162461bcd60e51b815260206004820152601660248201526000805160206145a2833981519152604482015290519081900360640190fd5b60006125117f00000000000000000000000000000000000000000000000000000000000000008c8c613367565b604080516323b872dd60e01b81523360048201526001600160a01b03831660248201819052604482018d9052915192935090916323b872dd916064808201926020929091908290030181600087803b15801561256c57600080fd5b505af1158015612580573d6000803e3d6000fd5b505050506040513d602081101561259657600080fd5b50506040805163226bf2d160e21b81526001600160a01b03888116600483015282516000938493928616926389afcb44926024808301939282900301818787803b1580156125e357600080fd5b505af11580156125f7573d6000803e3d6000fd5b505050506040513d604081101561260d57600080fd5b508051602090910151909250905060006126278e8e613f48565b509050806001600160a01b03168e6001600160a01b03161461264a57818361264d565b82825b90975095508a8710156126915760405162461bcd60e51b81526004018080602001828103825260248152602001806145326024913960400191505060405180910390fd5b898610156126d05760405162461bcd60e51b81526004018080602001828103825260248152602001806144e46024913960400191505060405180910390fd5b505050505097509795505050505050565b7f000000000000000000000000000000000000000000000000000000000000000081565b60606111177f000000000000000000000000000000000000000000000000000000000000000084846131e7565b60008060006127827f00000000000000000000000000000000000000000000000000000000000000008e7f0000000000000000000000000000000000000000000000000000000000000000613367565b9050600087612791578c612795565b6000195b6040805163d505accf60e01b815233600482015230602482015260448101839052606481018c905260ff8a16608482015260a4810189905260c4810188905290519192506001600160a01b0384169163d505accf9160e48082019260009290919082900301818387803b15801561280b57600080fd5b505af115801561281f573d6000803e3d6000fd5b505050506128318e8e8e8e8e8e610ca3565b909f909e509c50505050505050505050505050565b6000806000834281101561288f576040805162461bcd60e51b815260206004820152601660248201526000805160206145a2833981519152604482015290519081900360640190fd5b61289d8c8c8c8c8c8c614026565b909450925060006128cf7f00000000000000000000000000000000000000000000000000000000000000008e8e613367565b90506128dd8d338388613427565b6128e98c338387613427565b806001600160a01b0316636a627842886040518263ffffffff1660e01b815260040180826001600160a01b03168152602001915050602060405180830381600087803b15801561293857600080fd5b505af115801561294c573d6000803e3d6000fd5b505050506040513d602081101561296257600080fd5b5051949d939c50939a509198505050505050505050565b600080600083428110156129c2576040805162461bcd60e51b815260206004820152601660248201526000805160206145a2833981519152604482015290519081900360640190fd5b6129f08a7f00000000000000000000000000000000000000000000000000000000000000008b348c8c614026565b90945092506000612a427f00000000000000000000000000000000000000000000000000000000000000008c7f0000000000000000000000000000000000000000000000000000000000000000613367565b9050612a508b338388613427565b7f00000000000000000000000000000000000000000000000000000000000000006001600160a01b031663d0e30db0856040518263ffffffff1660e01b81526004016000604051808303818588803b158015612aab57600080fd5b505af1158015612abf573d6000803e3d6000fd5b50505050507f00000000000000000000000000000000000000000000000000000000000000006001600160a01b031663a9059cbb82866040518363ffffffff1660e01b815260040180836001600160a01b0316815260200182815260200192505050602060405180830381600087803b158015612b3b57600080fd5b505af1158015612b4f573d6000803e3d6000fd5b505050506040513d6020811015612b6557600080fd5b5051612b6d57fe5b806001600160a01b0316636a627842886040518263ffffffff1660e01b815260040180826001600160a01b03168152602001915050602060405180830381600087803b158015612bbc57600080fd5b505af1158015612bd0573d6000803e3d6000fd5b505050506040513d6020811015612be657600080fd5b5051925034841015612bfe57612bfe338534036130ef565b505096509650969350505050565b60608142811015612c52576040805162461bcd60e51b815260206004820152601660248201526000805160206145a2833981519152604482015290519081900360640190fd5b7f00000000000000000000000000000000000000000000000000000000000000006001600160a01b031686866000818110612c8957fe5b905060200201356001600160a01b03166001600160a01b031614612ce2576040805162461bcd60e51b815260206004820152601b6024820152600080516020614634833981519152604482015290519081900360640190fd5b612d407f0000000000000000000000000000000000000000000000000000000000000000888888808060200260200160405190810160405280939291908181526020018383602002808284376000920191909152506137c192505050565b91503482600081518110612d5057fe5b60200260200101511115612d955760405162461bcd60e51b81526004018080602001828103825260258152602001806144bf6025913960400191505060405180910390fd5b7f00000000000000000000000000000000000000000000000000000000000000006001600160a01b031663d0e30db083600081518110612dd157fe5b60200260200101516040518263ffffffff1660e01b81526004016000604051808303818588803b158015612e0457600080fd5b505af1158015612e18573d6000803e3d6000fd5b50505050507f00000000000000000000000000000000000000000000000000000000000000006001600160a01b031663a9059cbb612e7d7f0000000000000000000000000000000000000000000000000000000000000000898960008181106116ba57fe5b84600081518110612e8a57fe5b60200260200101516040518363ffffffff1660e01b815260040180836001600160a01b0316815260200182815260200192505050602060405180830381600087803b158015612ed857600080fd5b505af1158015612eec573d6000803e3d6000fd5b505050506040513d6020811015612f0257600080fd5b5051612f0a57fe5b612f4982878780806020026020016040519081016040528093929190818152602001838360200280828437600092019190915250899250613584915050565b81600081518110612f5657fe5b6020026020010151341115611e6a57611e6a3383600081518110612f7657fe5b602002602001015134036130ef565b604080516001600160a01b038481166024830152604480830185905283518084039091018152606490920183526020820180516001600160e01b031663a9059cbb60e01b178152925182516000946060949389169392918291908083835b602083106130025780518252601f199092019160209182019101612fe3565b6001836020036101000a0380198251168184511680821785525050505050509050019150506000604051808303816000865af19150503d8060008114613064576040519150601f19603f3d011682016040523d82523d6000602084013e613069565b606091505b5091509150818015613097575080511580613097575080806020019051602081101561309457600080fd5b50515b6130e8576040805162461bcd60e51b815260206004820152601f60248201527f5472616e7366657248656c7065723a205452414e534645525f4641494c454400604482015290519081900360640190fd5b5050505050565b604080516000808252602082019092526001600160a01b0384169083906040518082805190602001908083835b6020831061313b5780518252601f19909201916020918201910161311c565b6001836020036101000a03801982511681845116808217855250505050505090500191505060006040518083038185875af1925050503d806000811461319d576040519150601f19603f3d011682016040523d82523d6000602084013e6131a2565b606091505b50509050806131e25760405162461bcd60e51b81526004018080602001828103825260238152602001806146546023913960400191505060405180910390fd5b505050565b6060600282511015613240576040805162461bcd60e51b815260206004820152601c60248201527f446578537761704c6962726172793a20494e56414c49445f5041544800000000604482015290519081900360640190fd5b815167ffffffffffffffff8111801561325857600080fd5b50604051908082528060200260200182016040528015613282578160200160208202803683370190505b509050828160008151811061329357fe5b60200260200101818152505060005b600183510381101561335f576000806132e5878685815181106132c157fe5b60200260200101518786600101815181106132d857fe5b60200260200101516142b7565b9150915061333b8484815181106132f857fe5b602002602001015183836133368b8a898151811061331257fe5b60200260200101518b8a6001018151811061332957fe5b602002602001015161437e565b613920565b84846001018151811061334a57fe5b602090810291909101015250506001016132a2565b509392505050565b60008060006133768585613f48565b604080516bffffffffffffffffffffffff19606094851b811660208084019190915293851b81166034830152825160288184030181526048830184528051908501206001600160f81b031960688401529a90941b9093166069840152607d8301989098527f2f84bfc2d5814eb78c2edc1ee128b9e6c81836cc067b96f9bb51c2bbcc830296609d808401919091528851808403909101815260bd909201909752805196019590952095945050505050565b604080516001600160a01b0385811660248301528481166044830152606480830185905283518084039091018152608490920183526020820180516001600160e01b03166323b872dd60e01b17815292518251600094606094938a169392918291908083835b602083106134ac5780518252601f19909201916020918201910161348d565b6001836020036101000a0380198251168184511680821785525050505050509050019150506000604051808303816000865af19150503d806000811461350e576040519150601f19603f3d011682016040523d82523d6000602084013e613513565b606091505b5091509150818015613541575080511580613541575080806020019051602081101561353e57600080fd5b50515b61357c5760405162461bcd60e51b81526004018080602001828103825260248152602001806146776024913960400191505060405180910390fd5b505050505050565b60005b60018351038110156137bb576000808483815181106135a257fe5b60200260200101518584600101815181106135b957fe5b60200260200101519150915060006135d18383613f48565b50905060008785600101815181106135e557fe5b60200260200101519050600080836001600160a01b0316866001600160a01b03161461361357826000613617565b6000835b91509150600060028a5103881061362e578861366f565b61366f7f0000000000000000000000000000000000000000000000000000000000000000878c8b6002018151811061366257fe5b6020026020010151613367565b905061369c7f00000000000000000000000000000000000000000000000000000000000000008888613367565b6001600160a01b031663022c0d9f84848460006040519080825280601f01601f1916602001820160405280156136d9576020820181803683370190505b506040518563ffffffff1660e01b815260040180858152602001848152602001836001600160a01b0316815260200180602001828103825283818151815260200191508051906020019080838360005b83811015613741578181015183820152602001613729565b50505050905090810190601f16801561376e5780820380516001836020036101000a031916815260200191505b5095505050505050600060405180830381600087803b15801561379057600080fd5b505af11580156137a4573d6000803e3d6000fd5b505060019099019850613587975050505050505050565b50505050565b606060028251101561381a576040805162461bcd60e51b815260206004820152601c60248201527f446578537761704c6962726172793a20494e56414c49445f5041544800000000604482015290519081900360640190fd5b815167ffffffffffffffff8111801561383257600080fd5b5060405190808252806020026020018201604052801561385c578160200160208202803683370190505b509050828160018351038151811061387057fe5b60209081029190910101528151600019015b801561335f576000806138b28786600186038151811061389e57fe5b60200260200101518786815181106132d857fe5b915091506138fb8484815181106138c557fe5b602002602001015183836138f68b8a60018a03815181106138e257fe5b60200260200101518b8a8151811061332957fe5b613a03565b84600185038151811061390a57fe5b6020908102919091010152505060001901613882565b60008085116139605760405162461bcd60e51b81526004018080602001828103825260298152602001806145796029913960400191505060405180910390fd5b6000841180156139705750600083115b6139ab5760405162461bcd60e51b81526004018080602001828103825260268152602001806145c26026913960400191505060405180910390fd5b60006139c36139bc61271085613e52565b879061440c565b905060006139d1828661440c565b905060006139eb836139e58961271061440c565b9061446f565b90508082816139f657fe5b0498975050505050505050565b6000808511613a435760405162461bcd60e51b815260040180806020018281038252602a815260200180614508602a913960400191505060405180910390fd5b600084118015613a535750600083115b613a8e5760405162461bcd60e51b81526004018080602001828103825260268152602001806145c26026913960400191505060405180910390fd5b6000613aa6612710613aa0878961440c565b9061440c565b90506000613ac3613ab961271086613e52565b613aa0878a613e52565b9050613ada6001828481613ad357fe5b049061446f565b979650505050505050565b60005b60018351038110156131e257600080848381518110613b0357fe5b6020026020010151858460010181518110613b1a57fe5b6020026020010151915091506000613b328383613f48565b5090506000613b627f00000000000000000000000000000000000000000000000000000000000000008585613367565b9050600080600080846001600160a01b0316630902f1ac6040518163ffffffff1660e01b815260040160606040518083038186803b158015613ba357600080fd5b505afa158015613bb7573d6000803e3d6000fd5b505050506040513d6060811015613bcd57600080fd5b5080516020909101516001600160701b0391821693501690506000806001600160a01b038a811690891614613c03578284613c06565b83835b91509150613c5b828b6001600160a01b03166370a082318a6040518263ffffffff1660e01b815260040180826001600160a01b0316815260200191505060206040518083038186803b15801561182857600080fd5b9550613cd38683838a6001600160a01b03166354cf2aeb6040518163ffffffff1660e01b815260040160206040518083038186803b158015613c9c57600080fd5b505afa158015613cb0573d6000803e3d6000fd5b505050506040513d6020811015613cc657600080fd5b505163ffffffff16613920565b945050505050600080856001600160a01b0316886001600160a01b031614613cfd57826000613d01565b6000835b91509150600060028c51038a10613d18578a613d4c565b613d4c7f0000000000000000000000000000000000000000000000000000000000000000898e8d6002018151811061366257fe5b604080516000808252602082019283905263022c0d9f60e01b835260248201878152604483018790526001600160a01b038086166064850152608060848501908152845160a48601819052969750908c169563022c0d9f958a958a958a9591949193919260c486019290918190849084905b83811015613dd6578181015183820152602001613dbe565b50505050905090810190601f168015613e035780820380516001836020036101000a031916815260200191505b5095505050505050600060405180830381600087803b158015613e2557600080fd5b505af1158015613e39573d6000803e3d6000fd5b50506001909b019a50613ae89950505050505050505050565b8082038281111561111a576040805162461bcd60e51b815260206004820152601560248201527464732d6d6174682d7375622d756e646572666c6f7760581b604482015290519081900360640190fd5b6000808411613ee25760405162461bcd60e51b81526004018080602001828103825260238152602001806145e86023913960400191505060405180910390fd5b600083118015613ef25750600082115b613f2d5760405162461bcd60e51b81526004018080602001828103825260268152602001806145c26026913960400191505060405180910390fd5b82613f38858461440c565b81613f3f57fe5b04949350505050565b600080826001600160a01b0316846001600160a01b03161415613f9c5760405162461bcd60e51b81526004018080602001828103825260238152602001806145566023913960400191505060405180910390fd5b826001600160a01b0316846001600160a01b031610613fbc578284613fbf565b83835b90925090506001600160a01b03821661401f576040805162461bcd60e51b815260206004820152601c60248201527f446578537761704c6962726172793a205a45524f5f4144445245535300000000604482015290519081900360640190fd5b9250929050565b60008060006001600160a01b03167f00000000000000000000000000000000000000000000000000000000000000006001600160a01b031663e6a439058a8a6040518363ffffffff1660e01b815260040180836001600160a01b03168152602001826001600160a01b031681526020019250505060206040518083038186803b1580156140b257600080fd5b505afa1580156140c6573d6000803e3d6000fd5b505050506040513d60208110156140dc57600080fd5b50516001600160a01b0316141561419a577f00000000000000000000000000000000000000000000000000000000000000006001600160a01b031663c9c6539689896040518363ffffffff1660e01b815260040180836001600160a01b03168152602001826001600160a01b0316815260200192505050602060405180830381600087803b15801561416d57600080fd5b505af1158015614181573d6000803e3d6000fd5b505050506040513d602081101561419757600080fd5b50505b6000806141c87f00000000000000000000000000000000000000000000000000000000000000008b8b6142b7565b915091508160001480156141da575080155b156141ea578793508692506142aa565b60006141f7898484613ea2565b905087811161424a578581101561423f5760405162461bcd60e51b81526004018080602001828103825260248152602001806144e46024913960400191505060405180910390fd5b8894509250826142a8565b6000614257898486613ea2565b90508981111561426357fe5b878110156142a25760405162461bcd60e51b81526004018080602001828103825260248152602001806145326024913960400191505060405180910390fd5b94508793505b505b5050965096945050505050565b60008060006142c68585613f48565b5090506000806142d7888888613367565b6001600160a01b0316630902f1ac6040518163ffffffff1660e01b815260040160606040518083038186803b15801561430f57600080fd5b505afa158015614323573d6000803e3d6000fd5b505050506040513d606081101561433957600080fd5b5080516020909101516001600160701b0391821693501690506001600160a01b038781169084161461436c57808261436f565b81815b90999098509650505050505050565b60008061438b8484613f48565b509050614399858585613367565b6001600160a01b03166354cf2aeb6040518163ffffffff1660e01b815260040160206040518083038186803b1580156143d157600080fd5b505afa1580156143e5573d6000803e3d6000fd5b505050506040513d60208110156143fb57600080fd5b505163ffffffff1695945050505050565b60008115806144275750508082028282828161442457fe5b04145b61111a576040805162461bcd60e51b815260206004820152601460248201527364732d6d6174682d6d756c2d6f766572666c6f7760601b604482015290519081900360640190fd5b8082018281101561111a576040805162461bcd60e51b815260206004820152601460248201527364732d6d6174682d6164642d6f766572666c6f7760601b604482015290519081900360640190fdfe44657853776170526f757465723a204558434553534956455f494e5055545f414d4f554e5444657853776170526f757465723a20494e53554646494349454e545f425f414d4f554e54446578537761704c6962726172793a20494e53554646494349454e545f4f55545055545f414d4f554e5444657853776170526f757465723a20494e53554646494349454e545f415f414d4f554e54446578537761704c6962726172793a204944454e544943414c5f414444524553534553446578537761704c6962726172793a20494e53554646494349454e545f494e5055545f414d4f554e5444657853776170526f757465723a204558504952454400000000000000000000446578537761704c6962726172793a20494e53554646494349454e545f4c4951554944495459446578537761704c6962726172793a20494e53554646494349454e545f414d4f554e5444657853776170526f757465723a20494e53554646494349454e545f4f55545055545f414d4f554e5444657853776170526f757465723a20494e56414c49445f5041544800000000005472616e7366657248656c7065723a204554485f5452414e534645525f4641494c45445472616e7366657248656c7065723a205452414e534645525f46524f4d5f4641494c4544a2646970667358221220b07bf49dae1c8185df67f71dc81647eb14d861f4dffa0fd439c1d3c41cf3d87864736f6c634300060c0033",
  "immutableReferences": {
    "1336": [
      {
        "length": 32,
        "start": 3739
      },
      {
        "length": 32,
        "start": 3954
      },
      {
        "length": 32,
        "start": 4337
      },
      {
        "length": 32,
        "start": 4394
      },
      {
        "length": 32,
        "start": 4709
      },
      {
        "length": 32,
        "start": 5187
      },
      {
        "length": 32,
        "start": 5406
      },
      {
        "length": 32,
        "start": 5774
      },
      {
        "length": 32,
        "start": 7173
      },
      {
        "length": 32,
        "start": 7538
      },
      {
        "length": 32,
        "start": 7871
      },
      {
        "length": 32,
        "start": 8877
      },
      {
        "length": 32,
        "start": 9451
      },
      {
        "length": 32,
        "start": 9955
      },
      {
        "length": 32,
        "start": 9996
      },
      {
        "length": 32,
        "start": 10044
      },
      {
        "length": 32,
        "start": 10409
      },
      {
        "length": 32,
        "start": 10748
      },
      {
        "length": 32,
        "start": 11495
      },
      {
        "length": 32,
        "start": 11857
      },
      {
        "length": 32,
        "start": 13875
      },
      {
        "length": 32,
        "start": 13942
      },
      {
        "length": 32,
        "start": 15164
      },
      {
        "length": 32,
        "start": 15645
      },
      {
        "length": 32,
        "start": 16438
      },
      {
        "length": 32,
        "start": 16623
      },
      {
        "length": 32,
        "start": 16802
      }
    ],
    "1339": [
      {
        "length": 32,
        "start": 351
      },
      {
        "length": 32,
        "start": 3312
      },
      {
        "length": 32,
        "start": 3371
      },
      {
        "length": 32,
        "start": 3597
      },
      {
        "length": 32,
        "start": 4139
      },
      {
        "length": 32,
        "start": 5045
      },
      {
        "length": 32,
        "start": 5440
      },
      {
        "length": 32,
        "start": 6383
      },
      {
        "length": 32,
        "start": 6602
      },
      {
        "length": 32,
        "start": 6820
      },
      {
        "length": 32,
        "start": 7026
      },
      {
        "length": 32,
        "start": 7352
      },
      {
        "length": 32,
        "start": 7488
      },
      {
        "length": 32,
        "start": 8047
      },
      {
        "length": 32,
        "start": 8178
      },
      {
        "length": 32,
        "start": 8358
      },
      {
        "length": 32,
        "start": 8562
      },
      {
        "length": 32,
        "start": 8711
      },
      {
        "length": 32,
        "start": 8827
      },
      {
        "length": 32,
        "start": 10078
      },
      {
        "length": 32,
        "start": 10696
      },
      {
        "length": 32,
        "start": 10782
      },
      {
        "length": 32,
        "start": 10834
      },
      {
        "length": 32,
        "start": 10950
      },
      {
        "length": 32,
        "start": 11348
      },
      {
        "length": 32,
        "start": 11671
      },
      {
        "length": 32,
        "start": 11807
      }
    ]
  },
  "source": "// SPDX-License-Identifier: GPL-3.0\npragma solidity ^0.6.6  ;\n\n\nimport './libraries/TransferHelper.sol';\nimport './interfaces/IDexSwapRouter.sol';\nimport './libraries/DexSwapLibrary.sol';\nimport './libraries/SafeMath.sol';\nimport './interfaces/IERC20.sol';\nimport './interfaces/IWETH.sol';\nimport './interfaces/IDexSwapFactory.sol';\n\ncontract DexSwapRouter is IDexSwapRouter {\n    using SafeMath for uint;\n\n    address public immutable override factory;\n    address public immutable override WETH;\n\n    modifier ensure(uint deadline) {\n        require(deadline >= block.timestamp, 'DexSwapRouter: EXPIRED');\n        _;\n    }\n\n    constructor(address _factory, address _WETH) public {\n        factory = _factory;\n        WETH = _WETH;\n    }\n\n    receive() external payable {\n        assert(msg.sender == WETH); // only accept ETH via fallback from the WETH contract\n    }\n\n    // **** ADD LIQUIDITY ****\n    function _addLiquidity(\n        address tokenA,\n        address tokenB,\n        uint amountADesired,\n        uint amountBDesired,\n        uint amountAMin,\n        uint amountBMin\n    ) internal virtual returns (uint amountA, uint amountB) {\n        // create the pair if it doesn't exist yet\n        if (IDexSwapFactory(factory).getPair(tokenA, tokenB) == address(0)) {\n            IDexSwapFactory(factory).createPair(tokenA, tokenB);\n        }\n        (uint reserveA, uint reserveB) = DexSwapLibrary.getReserves(factory, tokenA, tokenB);\n        if (reserveA == 0 && reserveB == 0) {\n            (amountA, amountB) = (amountADesired, amountBDesired);\n        } else {\n            uint amountBOptimal = DexSwapLibrary.quote(amountADesired, reserveA, reserveB);\n            if (amountBOptimal <= amountBDesired) {\n                require(amountBOptimal >= amountBMin, 'DexSwapRouter: INSUFFICIENT_B_AMOUNT');\n                (amountA, amountB) = (amountADesired, amountBOptimal);\n            } else {\n                uint amountAOptimal = DexSwapLibrary.quote(amountBDesired, reserveB, reserveA);\n                assert(amountAOptimal <= amountADesired);\n                require(amountAOptimal >= amountAMin, 'DexSwapRouter: INSUFFICIENT_A_AMOUNT');\n                (amountA, amountB) = (amountAOptimal, amountBDesired);\n            }\n        }\n    }\n    function addLiquidity(\n        address tokenA,\n        address tokenB,\n        uint amountADesired,\n        uint amountBDesired,\n        uint amountAMin,\n        uint amountBMin,\n        address to,\n        uint deadline\n    ) external virtual override ensure(deadline) returns (uint amountA, uint amountB, uint liquidity) {\n        (amountA, amountB) = _addLiquidity(tokenA, tokenB, amountADesired, amountBDesired, amountAMin, amountBMin);\n        address pair = DexSwapLibrary.pairFor(factory, tokenA, tokenB);\n        TransferHelper.safeTransferFrom(tokenA, msg.sender, pair, amountA);\n        TransferHelper.safeTransferFrom(tokenB, msg.sender, pair, amountB);\n        liquidity = IDexSwapPair(pair).mint(to);\n    }\n    function addLiquidityETH(\n        address token,\n        uint amountTokenDesired,\n        uint amountTokenMin,\n        uint amountETHMin,\n        address to,\n        uint deadline\n    ) external virtual override payable ensure(deadline) returns (uint amountToken, uint amountETH, uint liquidity) {\n        (amountToken, amountETH) = _addLiquidity(\n            token,\n            WETH,\n            amountTokenDesired,\n            msg.value,\n            amountTokenMin,\n            amountETHMin\n        );\n        address pair = DexSwapLibrary.pairFor(factory, token, WETH);\n        TransferHelper.safeTransferFrom(token, msg.sender, pair, amountToken);\n        IWETH(WETH).deposit{value: amountETH}();\n        assert(IWETH(WETH).transfer(pair, amountETH));\n        liquidity = IDexSwapPair(pair).mint(to);\n        // refund dust eth, if any\n        if (msg.value > amountETH) TransferHelper.safeTransferETH(msg.sender, msg.value - amountETH);\n    }\n\n    // **** REMOVE LIQUIDITY ****\n    function removeLiquidity(\n        address tokenA,\n        address tokenB,\n        uint liquidity,\n        uint amountAMin,\n        uint amountBMin,\n        address to,\n        uint deadline\n    ) public virtual override ensure(deadline) returns (uint amountA, uint amountB) {\n        address pair = DexSwapLibrary.pairFor(factory, tokenA, tokenB);\n        IDexSwapPair(pair).transferFrom(msg.sender, pair, liquidity); // send liquidity to pair\n        (uint amount0, uint amount1) = IDexSwapPair(pair).burn(to);\n        (address token0,) = DexSwapLibrary.sortTokens(tokenA, tokenB);\n        (amountA, amountB) = tokenA == token0 ? (amount0, amount1) : (amount1, amount0);\n        require(amountA >= amountAMin, 'DexSwapRouter: INSUFFICIENT_A_AMOUNT');\n        require(amountB >= amountBMin, 'DexSwapRouter: INSUFFICIENT_B_AMOUNT');\n    }\n    function removeLiquidityETH(\n        address token,\n        uint liquidity,\n        uint amountTokenMin,\n        uint amountETHMin,\n        address to,\n        uint deadline\n    ) public virtual override ensure(deadline) returns (uint amountToken, uint amountETH) {\n        (amountToken, amountETH) = removeLiquidity(\n            token,\n            WETH,\n            liquidity,\n            amountTokenMin,\n            amountETHMin,\n            address(this),\n            deadline\n        );\n        TransferHelper.safeTransfer(token, to, amountToken);\n        IWETH(WETH).withdraw(amountETH);\n        TransferHelper.safeTransferETH(to, amountETH);\n    }\n    function removeLiquidityWithPermit(\n        address tokenA,\n        address tokenB,\n        uint liquidity,\n        uint amountAMin,\n        uint amountBMin,\n        address to,\n        uint deadline,\n        bool approveMax, uint8 v, bytes32 r, bytes32 s\n    ) external virtual override returns (uint amountA, uint amountB) {\n        address pair = DexSwapLibrary.pairFor(factory, tokenA, tokenB);\n        uint value = approveMax ? uint(-1) : liquidity;\n        IDexSwapPair(pair).permit(msg.sender, address(this), value, deadline, v, r, s);\n        (amountA, amountB) = removeLiquidity(tokenA, tokenB, liquidity, amountAMin, amountBMin, to, deadline);\n    }\n    function removeLiquidityETHWithPermit(\n        address token,\n        uint liquidity,\n        uint amountTokenMin,\n        uint amountETHMin,\n        address to,\n        uint deadline,\n        bool approveMax, uint8 v, bytes32 r, bytes32 s\n    ) external virtual override returns (uint amountToken, uint amountETH) {\n        address pair = DexSwapLibrary.pairFor(factory, token, WETH);\n        uint value = approveMax ? uint(-1) : liquidity;\n        IDexSwapPair(pair).permit(msg.sender, address(this), value, deadline, v, r, s);\n        (amountToken, amountETH) = removeLiquidityETH(token, liquidity, amountTokenMin, amountETHMin, to, deadline);\n    }\n\n    // **** REMOVE LIQUIDITY (supporting fee-on-transfer tokens) ****\n    function removeLiquidityETHSupportingFeeOnTransferTokens(\n        address token,\n        uint liquidity,\n        uint amountTokenMin,\n        uint amountETHMin,\n        address to,\n        uint deadline\n    ) public virtual override ensure(deadline) returns (uint amountETH) {\n        (, amountETH) = removeLiquidity(\n            token,\n            WETH,\n            liquidity,\n            amountTokenMin,\n            amountETHMin,\n            address(this),\n            deadline\n        );\n        TransferHelper.safeTransfer(token, to, IERC20(token).balanceOf(address(this)));\n        IWETH(WETH).withdraw(amountETH);\n        TransferHelper.safeTransferETH(to, amountETH);\n    }\n    function removeLiquidityETHWithPermitSupportingFeeOnTransferTokens(\n        address token,\n        uint liquidity,\n        uint amountTokenMin,\n        uint amountETHMin,\n        address to,\n        uint deadline,\n        bool approveMax, uint8 v, bytes32 r, bytes32 s\n    ) external virtual override returns (uint amountETH) {\n        address pair = DexSwapLibrary.pairFor(factory, token, WETH);\n        uint value = approveMax ? uint(-1) : liquidity;\n        IDexSwapPair(pair).permit(msg.sender, address(this), value, deadline, v, r, s);\n        amountETH = removeLiquidityETHSupportingFeeOnTransferTokens(\n            token, liquidity, amountTokenMin, amountETHMin, to, deadline\n        );\n    }\n\n    // **** SWAP ****\n    // requires the initial amount to have already been sent to the first pair\n    function _swap(uint[] memory amounts, address[] memory path, address _to) internal virtual {\n        for (uint i; i < path.length - 1; i++) {\n            (address input, address output) = (path[i], path[i + 1]);\n            (address token0,) = DexSwapLibrary.sortTokens(input, output);\n            uint amountOut = amounts[i + 1];\n            (uint amount0Out, uint amount1Out) = input == token0 ? (uint(0), amountOut) : (amountOut, uint(0));\n            address to = i < path.length - 2 ? DexSwapLibrary.pairFor(factory, output, path[i + 2]) : _to;\n            IDexSwapPair(DexSwapLibrary.pairFor(factory, input, output)).swap(\n                amount0Out, amount1Out, to, new bytes(0)\n            );\n        }\n    }\n    function swapExactTokensForTokens(\n        uint amountIn,\n        uint amountOutMin,\n        address[] calldata path,\n        address to,\n        uint deadline\n    ) external virtual override ensure(deadline) returns (uint[] memory amounts) {\n        amounts = DexSwapLibrary.getAmountsOut(factory, amountIn, path);\n        require(amounts[amounts.length - 1] >= amountOutMin, 'DexSwapRouter: INSUFFICIENT_OUTPUT_AMOUNT');\n        TransferHelper.safeTransferFrom(\n            path[0], msg.sender, DexSwapLibrary.pairFor(factory, path[0], path[1]), amounts[0]\n        );\n        _swap(amounts, path, to);\n    }\n    function swapTokensForExactTokens(\n        uint amountOut,\n        uint amountInMax,\n        address[] calldata path,\n        address to,\n        uint deadline\n    ) external virtual override ensure(deadline) returns (uint[] memory amounts) {\n        amounts = DexSwapLibrary.getAmountsIn(factory, amountOut, path);\n        require(amounts[0] <= amountInMax, 'DexSwapRouter: EXCESSIVE_INPUT_AMOUNT');\n        TransferHelper.safeTransferFrom(\n            path[0], msg.sender, DexSwapLibrary.pairFor(factory, path[0], path[1]), amounts[0]\n        );\n        _swap(amounts, path, to);\n    }\n    function swapExactETHForTokens(uint amountOutMin, address[] calldata path, address to, uint deadline)\n        external\n        virtual\n        override\n        payable\n        ensure(deadline)\n        returns (uint[] memory amounts)\n    {\n        require(path[0] == WETH, 'DexSwapRouter: INVALID_PATH');\n        amounts = DexSwapLibrary.getAmountsOut(factory, msg.value, path);\n        require(amounts[amounts.length - 1] >= amountOutMin, 'DexSwapRouter: INSUFFICIENT_OUTPUT_AMOUNT');\n        IWETH(WETH).deposit{value: amounts[0]}();\n        assert(IWETH(WETH).transfer(DexSwapLibrary.pairFor(factory, path[0], path[1]), amounts[0]));\n        _swap(amounts, path, to);\n    }\n    function swapTokensForExactETH(uint amountOut, uint amountInMax, address[] calldata path, address to, uint deadline)\n        external\n        virtual\n        override\n        ensure(deadline)\n        returns (uint[] memory amounts)\n    {\n        require(path[path.length - 1] == WETH, 'DexSwapRouter: INVALID_PATH');\n        amounts = DexSwapLibrary.getAmountsIn(factory, amountOut, path);\n        require(amounts[0] <= amountInMax, 'DexSwapRouter: EXCESSIVE_INPUT_AMOUNT');\n        TransferHelper.safeTransferFrom(\n            path[0], msg.sender, DexSwapLibrary.pairFor(factory, path[0], path[1]), amounts[0]\n        );\n        _swap(amounts, path, address(this));\n        IWETH(WETH).withdraw(amounts[amounts.length - 1]);\n        TransferHelper.safeTransferETH(to, amounts[amounts.length - 1]);\n    }\n    function swapExactTokensForETH(uint amountIn, uint amountOutMin, address[] calldata path, address to, uint deadline)\n        external\n        virtual\n        override\n        ensure(deadline)\n        returns (uint[] memory amounts)\n    {\n        require(path[path.length - 1] == WETH, 'DexSwapRouter: INVALID_PATH');\n        amounts = DexSwapLibrary.getAmountsOut(factory, amountIn, path);\n        require(amounts[amounts.length - 1] >= amountOutMin, 'DexSwapRouter: INSUFFICIENT_OUTPUT_AMOUNT');\n        TransferHelper.safeTransferFrom(\n            path[0], msg.sender, DexSwapLibrary.pairFor(factory, path[0], path[1]), amounts[0]\n        );\n        _swap(amounts, path, address(this));\n        IWETH(WETH).withdraw(amounts[amounts.length - 1]);\n        TransferHelper.safeTransferETH(to, amounts[amounts.length - 1]);\n    }\n    function swapETHForExactTokens(uint amountOut, address[] calldata path, address to, uint deadline)\n        external\n        virtual\n        override\n        payable\n        ensure(deadline)\n        returns (uint[] memory amounts)\n    {\n        require(path[0] == WETH, 'DexSwapRouter: INVALID_PATH');\n        amounts = DexSwapLibrary.getAmountsIn(factory, amountOut, path);\n        require(amounts[0] <= msg.value, 'DexSwapRouter: EXCESSIVE_INPUT_AMOUNT');\n        IWETH(WETH).deposit{value: amounts[0]}();\n        assert(IWETH(WETH).transfer(DexSwapLibrary.pairFor(factory, path[0], path[1]), amounts[0]));\n        _swap(amounts, path, to);\n        // refund dust eth, if any\n        if (msg.value > amounts[0]) TransferHelper.safeTransferETH(msg.sender, msg.value - amounts[0]);\n    }\n\n    // **** SWAP (supporting fee-on-transfer tokens) ****\n    // requires the initial amount to have already been sent to the first pair\n    function _swapSupportingFeeOnTransferTokens(address[] memory path, address _to) internal virtual {\n        for (uint i; i < path.length - 1; i++) {\n            (address input, address output) = (path[i], path[i + 1]);\n            (address token0,) = DexSwapLibrary.sortTokens(input, output);\n            IDexSwapPair pair = IDexSwapPair(DexSwapLibrary.pairFor(factory, input, output));\n            uint amountInput;\n            uint amountOutput;\n            { // scope to avoid stack too deep errors\n            (uint reserve0, uint reserve1,) = pair.getReserves();\n            (uint reserveInput, uint reserveOutput) = input == token0 ? (reserve0, reserve1) : (reserve1, reserve0);\n            amountInput = IERC20(input).balanceOf(address(pair)).sub(reserveInput);\n            amountOutput = DexSwapLibrary.getAmountOut(amountInput, reserveInput, reserveOutput, pair.swapFee());\n            }\n            (uint amount0Out, uint amount1Out) = input == token0 ? (uint(0), amountOutput) : (amountOutput, uint(0));\n            address to = i < path.length - 2 ? DexSwapLibrary.pairFor(factory, output, path[i + 2]) : _to;\n            pair.swap(amount0Out, amount1Out, to, new bytes(0));\n        }\n    }\n    function swapExactTokensForTokensSupportingFeeOnTransferTokens(\n        uint amountIn,\n        uint amountOutMin,\n        address[] calldata path,\n        address to,\n        uint deadline\n    ) external virtual override ensure(deadline) {\n        TransferHelper.safeTransferFrom(\n            path[0], msg.sender, DexSwapLibrary.pairFor(factory, path[0], path[1]), amountIn\n        );\n        uint balanceBefore = IERC20(path[path.length - 1]).balanceOf(to);\n        _swapSupportingFeeOnTransferTokens(path, to);\n        require(\n            IERC20(path[path.length - 1]).balanceOf(to).sub(balanceBefore) >= amountOutMin,\n            'DexSwapRouter: INSUFFICIENT_OUTPUT_AMOUNT'\n        );\n    }\n    function swapExactETHForTokensSupportingFeeOnTransferTokens(\n        uint amountOutMin,\n        address[] calldata path,\n        address to,\n        uint deadline\n    )\n        external\n        virtual\n        override\n        payable\n        ensure(deadline)\n    {\n        require(path[0] == WETH, 'DexSwapRouter: INVALID_PATH');\n        uint amountIn = msg.value;\n        IWETH(WETH).deposit{value: amountIn}();\n        assert(IWETH(WETH).transfer(DexSwapLibrary.pairFor(factory, path[0], path[1]), amountIn));\n        uint balanceBefore = IERC20(path[path.length - 1]).balanceOf(to);\n        _swapSupportingFeeOnTransferTokens(path, to);\n        require(\n            IERC20(path[path.length - 1]).balanceOf(to).sub(balanceBefore) >= amountOutMin,\n            'DexSwapRouter: INSUFFICIENT_OUTPUT_AMOUNT'\n        );\n    }\n    function swapExactTokensForETHSupportingFeeOnTransferTokens(\n        uint amountIn,\n        uint amountOutMin,\n        address[] calldata path,\n        address to,\n        uint deadline\n    )\n        external\n        virtual\n        override\n        ensure(deadline)\n    {\n        require(path[path.length - 1] == WETH, 'DexSwapRouter: INVALID_PATH');\n        TransferHelper.safeTransferFrom(\n            path[0], msg.sender, DexSwapLibrary.pairFor(factory, path[0], path[1]), amountIn\n        );\n        _swapSupportingFeeOnTransferTokens(path, address(this));\n        uint amountOut = IERC20(WETH).balanceOf(address(this));\n        require(amountOut >= amountOutMin, 'DexSwapRouter: INSUFFICIENT_OUTPUT_AMOUNT');\n        IWETH(WETH).withdraw(amountOut);\n        TransferHelper.safeTransferETH(to, amountOut);\n    }\n\n    // **** LIBRARY FUNCTIONS ****\n    function quote(uint amountA, uint reserveA, uint reserveB) public pure virtual override returns (uint amountB) {\n        return DexSwapLibrary.quote(amountA, reserveA, reserveB);\n    }\n\n    function getAmountOut(uint amountIn, uint reserveIn, uint reserveOut, uint swapFee)\n        public\n        pure\n        virtual\n        override\n        returns (uint amountOut)\n    {\n        return DexSwapLibrary.getAmountOut(amountIn, reserveIn, reserveOut, swapFee);\n    }\n\n    function getAmountIn(uint amountOut, uint reserveIn, uint reserveOut, uint swapFee)\n        public\n        pure\n        virtual\n        override\n        returns (uint amountIn)\n    {\n        return DexSwapLibrary.getAmountIn(amountOut, reserveIn, reserveOut, swapFee);\n    }\n\n    function getAmountsOut(uint amountIn, address[] memory path)\n        public\n        view\n        virtual\n        override\n        returns (uint[] memory amounts)\n    {\n        return DexSwapLibrary.getAmountsOut(factory, amountIn, path);\n    }\n\n    function getAmountsIn(uint amountOut, address[] memory path)\n        public\n        view\n        virtual\n        override\n        returns (uint[] memory amounts)\n    {\n        return DexSwapLibrary.getAmountsIn(factory, amountOut, path);\n    }\n}\n",
  "sourcePath": "/mnt/d/HARMONY/HARMONY_ONE-main/contracts-router/contracts/DexSwapRouter.sol",
  "compiler": {
    "name": "solc",
    "version": "0.6.12+commit.27d51765.Emscripten.clang"
  },
  "schemaVersion": "3.4.1",
  "updatedAt": "2021-12-21T09:13:23.761Z",
  "networkType": "ethereum",
  "devdoc": {
    "kind": "dev",
    "methods": {},
    "version": 1
  },
  "userdoc": {
    "kind": "user",
    "methods": {},
    "version": 1
  }
}