{
  "contractName": "DexSwapRelayer",
  "abi": [
    {
      "inputs": [
        {
          "internalType": "address payable",
          "name": "_owner",
          "type": "address"
        },
        {
          "internalType": "address",
          "name": "_dexSwapFactory",
          "type": "address"
        },
        {
          "internalType": "address",
          "name": "_dexSwapRouter",
          "type": "address"
        },
        {
          "internalType": "address",
          "name": "_uniswapFactory",
          "type": "address"
        },
        {
          "internalType": "address",
          "name": "_uniswapRouter",
          "type": "address"
        },
        {
          "internalType": "address",
          "name": "_WETH",
          "type": "address"
        },
        {
          "internalType": "contract OracleCreator",
          "name": "_oracleCreater",
          "type": "address"
        }
      ],
      "stateMutability": "nonpayable",
      "type": "constructor"
    },
    {
      "anonymous": false,
      "inputs": [
        {
          "indexed": true,
          "internalType": "uint256",
          "name": "_orderIndex",
          "type": "uint256"
        }
      ],
      "name": "ExecutedOrder",
      "type": "event"
    },
    {
      "anonymous": false,
      "inputs": [
        {
          "indexed": true,
          "internalType": "uint256",
          "name": "_orderIndex",
          "type": "uint256"
        },
        {
          "indexed": true,
          "internalType": "uint8",
          "name": "_action",
          "type": "uint8"
        }
      ],
      "name": "NewOrder",
      "type": "event"
    },
    {
      "anonymous": false,
      "inputs": [
        {
          "indexed": true,
          "internalType": "uint256",
          "name": "_orderIndex",
          "type": "uint256"
        }
      ],
      "name": "WithdrawnExpiredOrder",
      "type": "event"
    },
    {
      "inputs": [],
      "name": "BOUNTY",
      "outputs": [
        {
          "internalType": "uint256",
          "name": "",
          "type": "uint256"
        }
      ],
      "stateMutability": "view",
      "type": "function"
    },
    {
      "inputs": [],
      "name": "GAS_ORACLE_UPDATE",
      "outputs": [
        {
          "internalType": "uint256",
          "name": "",
          "type": "uint256"
        }
      ],
      "stateMutability": "view",
      "type": "function"
    },
    {
      "inputs": [],
      "name": "PARTS_PER_MILLION",
      "outputs": [
        {
          "internalType": "uint256",
          "name": "",
          "type": "uint256"
        }
      ],
      "stateMutability": "view",
      "type": "function"
    },
    {
      "inputs": [],
      "name": "PROVISION",
      "outputs": [
        {
          "internalType": "uint8",
          "name": "",
          "type": "uint8"
        }
      ],
      "stateMutability": "view",
      "type": "function"
    },
    {
      "inputs": [],
      "name": "REMOVAL",
      "outputs": [
        {
          "internalType": "uint8",
          "name": "",
          "type": "uint8"
        }
      ],
      "stateMutability": "view",
      "type": "function"
    },
    {
      "inputs": [],
      "name": "WETH",
      "outputs": [
        {
          "internalType": "address",
          "name": "",
          "type": "address"
        }
      ],
      "stateMutability": "view",
      "type": "function"
    },
    {
      "inputs": [],
      "name": "dexSwapFactory",
      "outputs": [
        {
          "internalType": "address",
          "name": "",
          "type": "address"
        }
      ],
      "stateMutability": "view",
      "type": "function"
    },
    {
      "inputs": [],
      "name": "dexSwapRouter",
      "outputs": [
        {
          "internalType": "address",
          "name": "",
          "type": "address"
        }
      ],
      "stateMutability": "view",
      "type": "function"
    },
    {
      "inputs": [],
      "name": "orderCount",
      "outputs": [
        {
          "internalType": "uint256",
          "name": "",
          "type": "uint256"
        }
      ],
      "stateMutability": "view",
      "type": "function"
    },
    {
      "inputs": [],
      "name": "owner",
      "outputs": [
        {
          "internalType": "address payable",
          "name": "",
          "type": "address"
        }
      ],
      "stateMutability": "view",
      "type": "function"
    },
    {
      "inputs": [],
      "name": "uniswapFactory",
      "outputs": [
        {
          "internalType": "address",
          "name": "",
          "type": "address"
        }
      ],
      "stateMutability": "view",
      "type": "function"
    },
    {
      "inputs": [],
      "name": "uniswapRouter",
      "outputs": [
        {
          "internalType": "address",
          "name": "",
          "type": "address"
        }
      ],
      "stateMutability": "view",
      "type": "function"
    },
    {
      "stateMutability": "payable",
      "type": "receive"
    },
    {
      "inputs": [
        {
          "internalType": "address",
          "name": "tokenA",
          "type": "address"
        },
        {
          "internalType": "address",
          "name": "tokenB",
          "type": "address"
        },
        {
          "internalType": "uint256",
          "name": "amountA",
          "type": "uint256"
        },
        {
          "internalType": "uint256",
          "name": "amountB",
          "type": "uint256"
        },
        {
          "internalType": "uint256",
          "name": "priceTolerance",
          "type": "uint256"
        },
        {
          "internalType": "uint256",
          "name": "minReserveA",
          "type": "uint256"
        },
        {
          "internalType": "uint256",
          "name": "minReserveB",
          "type": "uint256"
        },
        {
          "internalType": "uint256",
          "name": "maxWindowTime",
          "type": "uint256"
        },
        {
          "internalType": "uint256",
          "name": "deadline",
          "type": "uint256"
        },
        {
          "internalType": "address",
          "name": "factory",
          "type": "address"
        }
      ],
      "name": "orderLiquidityProvision",
      "outputs": [
        {
          "internalType": "uint256",
          "name": "orderIndex",
          "type": "uint256"
        }
      ],
      "stateMutability": "payable",
      "type": "function"
    },
    {
      "inputs": [
        {
          "internalType": "address",
          "name": "tokenA",
          "type": "address"
        },
        {
          "internalType": "address",
          "name": "tokenB",
          "type": "address"
        },
        {
          "internalType": "uint256",
          "name": "liquidity",
          "type": "uint256"
        },
        {
          "internalType": "uint256",
          "name": "amountA",
          "type": "uint256"
        },
        {
          "internalType": "uint256",
          "name": "amountB",
          "type": "uint256"
        },
        {
          "internalType": "uint256",
          "name": "priceTolerance",
          "type": "uint256"
        },
        {
          "internalType": "uint256",
          "name": "minReserveA",
          "type": "uint256"
        },
        {
          "internalType": "uint256",
          "name": "minReserveB",
          "type": "uint256"
        },
        {
          "internalType": "uint256",
          "name": "maxWindowTime",
          "type": "uint256"
        },
        {
          "internalType": "uint256",
          "name": "deadline",
          "type": "uint256"
        },
        {
          "internalType": "address",
          "name": "factory",
          "type": "address"
        }
      ],
      "name": "orderLiquidityRemoval",
      "outputs": [
        {
          "internalType": "uint256",
          "name": "orderIndex",
          "type": "uint256"
        }
      ],
      "stateMutability": "nonpayable",
      "type": "function"
    },
    {
      "inputs": [
        {
          "internalType": "uint256",
          "name": "orderIndex",
          "type": "uint256"
        }
      ],
      "name": "executeOrder",
      "outputs": [],
      "stateMutability": "nonpayable",
      "type": "function"
    },
    {
      "inputs": [
        {
          "internalType": "uint256",
          "name": "orderIndex",
          "type": "uint256"
        }
      ],
      "name": "updateOracle",
      "outputs": [],
      "stateMutability": "nonpayable",
      "type": "function"
    },
    {
      "inputs": [
        {
          "internalType": "uint256",
          "name": "orderIndex",
          "type": "uint256"
        }
      ],
      "name": "withdrawExpiredOrder",
      "outputs": [],
      "stateMutability": "nonpayable",
      "type": "function"
    },
    {
      "inputs": [
        {
          "internalType": "address",
          "name": "token",
          "type": "address"
        },
        {
          "internalType": "uint256",
          "name": "amount",
          "type": "uint256"
        }
      ],
      "name": "ERC20Withdraw",
      "outputs": [],
      "stateMutability": "nonpayable",
      "type": "function"
    },
    {
      "inputs": [
        {
          "internalType": "uint256",
          "name": "amount",
          "type": "uint256"
        }
      ],
      "name": "ETHWithdraw",
      "outputs": [],
      "stateMutability": "nonpayable",
      "type": "function"
    },
    {
      "inputs": [
        {
          "internalType": "uint256",
          "name": "orderIndex",
          "type": "uint256"
        }
      ],
      "name": "GetOrderDetails",
      "outputs": [
        {
          "components": [
            {
              "internalType": "uint8",
              "name": "action",
              "type": "uint8"
            },
            {
              "internalType": "address",
              "name": "tokenA",
              "type": "address"
            },
            {
              "internalType": "address",
              "name": "tokenB",
              "type": "address"
            },
            {
              "internalType": "uint256",
              "name": "amountA",
              "type": "uint256"
            },
            {
              "internalType": "uint256",
              "name": "amountB",
              "type": "uint256"
            },
            {
              "internalType": "uint256",
              "name": "liquidity",
              "type": "uint256"
            },
            {
              "internalType": "uint256",
              "name": "priceTolerance",
              "type": "uint256"
            },
            {
              "internalType": "uint256",
              "name": "minReserveA",
              "type": "uint256"
            },
            {
              "internalType": "uint256",
              "name": "minReserveB",
              "type": "uint256"
            },
            {
              "internalType": "address",
              "name": "oraclePair",
              "type": "address"
            },
            {
              "internalType": "uint256",
              "name": "deadline",
              "type": "uint256"
            },
            {
              "internalType": "uint256",
              "name": "maxWindowTime",
              "type": "uint256"
            },
            {
              "internalType": "uint256",
              "name": "oracleId",
              "type": "uint256"
            },
            {
              "internalType": "address",
              "name": "factory",
              "type": "address"
            },
            {
              "internalType": "bool",
              "name": "executed",
              "type": "bool"
            }
          ],
          "internalType": "struct DexSwapRelayer.Order",
          "name": "",
          "type": "tuple"
        }
      ],
      "stateMutability": "view",
      "type": "function"
    }
  ],
  "bytecode": "0x6101e0604052620291ac608052620f424060a052662386f26fc1000060c052600160f81b60e052600160f91b610100523480156200003c57600080fd5b5060405162003794380380620037948339810160408190526200005f91620000c4565b606096871b6001600160601b03199081166101205295871b86166101405293861b85166101605291851b841661018052841b83166101a05290921b166101c052600080546001600160a01b0319166001600160a01b0390921691909117905562000187565b600080600080600080600060e0888a031215620000df578283fd5b8751620000ec816200016e565b6020890151909750620000ff816200016e565b604089015190965062000112816200016e565b606089015190955062000125816200016e565b608089015190945062000138816200016e565b60a08901519093506200014b816200016e565b60c08901519092506200015e816200016e565b8091505092959891949750929550565b6001600160a01b03811681146200018457600080fd5b50565b60805160a05160c05160e05160f81c6101005160f81c6101205160601c6101405160601c6101605160601c6101805160601c6101a05160601c6101c05160601c6134846200031060003980610a2a52806110e55280611f8052806121ee528061226252806124065280612531528061258052806125ee528061263d52508061057852508061059c528061062152806111465280611f2052508061035f5280610d90528061228a52806122b552806122f0528061239252806123be528061242e5280612458528061250952508061053052806105e65280610a535280611074528061110b5280611ee55250806103a0528061047b52806104ab52806104d6528061067c5280610c1352806111a15280611b5f5280611ba15280611bf85280611c3b52508061055452806107fb5280610bb6528061103f525080611000528061147f528061168f52806118b55250806119b05280611bcb5250806107565280610f4a5280610f99528061126f5280611c6652806120cc5250806105c052806119d452506134846000f3fe6080604052600436106101235760003560e01c806394f61134116100a0578063c58125bc11610064578063c58125bc146102c6578063d081f2b8146102e6578063d530f4e7146102fb578063ec6ea8121461031b578063ffc5ea0d146103305761012a565b806394f6113414610249578063ad5c464814610269578063b7345d2f1461027e578063b964930a14610291578063c23c1c9f146102a65761012a565b8063735de9f7116100e7578063735de9f7146101d55780638bdb2afa146101ea5780638c0a63bf146101ff5780638d091c34146102145780638da5cb5b146102345761012a565b80630e69d7931461012f5780632453ffa81461015a5780632cb2db611461017c5780633c8821de1461019e5780634860bfe5146101b35761012a565b3661012a57005b600080fd5b34801561013b57600080fd5b5061014461035d565b6040516101519190612c1f565b60405180910390f35b34801561016657600080fd5b5061016f610381565b60405161015191906133d7565b34801561018857600080fd5b5061019c610197366004612acf565b610387565b005b3480156101aa57600080fd5b5061014461052e565b3480156101bf57600080fd5b506101c8610552565b6040516101519190613416565b3480156101e157600080fd5b50610144610576565b3480156101f657600080fd5b5061014461059a565b34801561020b57600080fd5b5061016f6105be565b34801561022057600080fd5b5061016f61022f366004612995565b6105e2565b34801561024057600080fd5b50610144610c11565b34801561025557600080fd5b5061019c610264366004612acf565b610c35565b34801561027557600080fd5b506101446110e3565b61016f61028c366004612905565b611107565b34801561029d57600080fd5b506101c86118b3565b3480156102b257600080fd5b5061019c6102c1366004612acf565b6118d7565b3480156102d257600080fd5b5061019c6102e1366004612acf565b611b54565b3480156102f257600080fd5b5061016f611bc9565b34801561030757600080fd5b5061019c610316366004612a30565b611bed565b34801561032757600080fd5b5061016f611c64565b34801561033c57600080fd5b5061035061034b366004612acf565b611c88565b60405161015191906132f9565b7f000000000000000000000000000000000000000000000000000000000000000081565b60015481565b6000818152600260205260409020336001600160a01b037f000000000000000000000000000000000000000000000000000000000000000016146103e65760405162461bcd60e51b81526004016103dd90612cef565b60405180910390fd5b806009015442116104095760405162461bcd60e51b81526004016103dd906132b5565b600c810154600160a01b900460ff16156104355760405162461bcd60e51b81526004016103dd90613182565b8054600182015460028301546003840154600c8501805460ff60a01b1916600160a01b1790556001600160a01b036101009094048416939290921691836104a5576104a07f000000000000000000000000000000000000000000000000000000000000000083611d68565b6104d0565b6104d0847f000000000000000000000000000000000000000000000000000000000000000084611dfa565b6104fb837f000000000000000000000000000000000000000000000000000000000000000083611dfa565b60405186907f3f9d01b8340245ea975087559a7911155f1b300f5b19aa35fcc67d4adf962c8590600090a2505050505050565b7f000000000000000000000000000000000000000000000000000000000000000081565b7f000000000000000000000000000000000000000000000000000000000000000081565b7f000000000000000000000000000000000000000000000000000000000000000081565b7f000000000000000000000000000000000000000000000000000000000000000081565b7f000000000000000000000000000000000000000000000000000000000000000081565b60007f00000000000000000000000000000000000000000000000000000000000000006001600160a01b0316826001600160a01b0316148061065557507f00000000000000000000000000000000000000000000000000000000000000006001600160a01b0316826001600160a01b0316145b6106715760405162461bcd60e51b81526004016103dd90612d97565b336001600160a01b037f000000000000000000000000000000000000000000000000000000000000000016146106b95760405162461bcd60e51b81526004016103dd90612cef565b8a6001600160a01b03168c6001600160a01b031614156106eb5760405162461bcd60e51b81526004016103dd9061308e565b8a6001600160a01b03168c6001600160a01b03161061071c5760405162461bcd60e51b81526004016103dd90612f8f565b60008911801561072c5750600088115b8015610738575060008a115b6107545760405162461bcd60e51b81526004016103dd90612e05565b7f00000000000000000000000000000000000000000000000000000000000000008711156107945760405162461bcd60e51b81526004016103dd90613274565b824211156107b45760405162461bcd60e51b81526004016103dd90613109565b601e84116107d45760405162461bcd60e51b81526004016103dd9061304c565b60006107e18d8d85611ee1565b90506107eb612028565b9150604051806101e001604052807f000000000000000000000000000000000000000000000000000000000000000060ff1681526020018e6001600160a01b031681526020018d6001600160a01b031681526020018b81526020018a81526020018c8152602001898152602001888152602001878152602001826001600160a01b0316815260200185815260200186815260200160008152602001846001600160a01b03168152602001600015158152506002600084815260200190815260200160002060008201518160000160006101000a81548160ff021916908360ff16021790555060208201518160000160016101000a8154816001600160a01b0302191690836001600160a01b0316021790555060408201518160010160006101000a8154816001600160a01b0302191690836001600160a01b03160217905550606082015181600201556080820151816003015560a0820151816004015560c0820151816005015560e0820151816006015561010082015181600701556101208201518160080160006101000a8154816001600160a01b0302191690836001600160a01b03160217905550610140820151816009015561016082015181600a015561018082015181600b01556101a082015181600c0160006101000a8154816001600160a01b0302191690836001600160a01b031602179055506101c082015181600c0160146101000a81548160ff02191690831515021790555090505060006001600160a01b03168d6001600160a01b031614610a28578c610a4a565b7f00000000000000000000000000000000000000000000000000000000000000005b9c506000610a797f00000000000000000000000000000000000000000000000000000000000000008f8f612035565b9050600080826001600160a01b0316630902f1ac6040518163ffffffff1660e01b815260040160606040518083038186803b158015610ab757600080fd5b505afa158015610acb573d6000803e3d6000fd5b505050506040513d601f19601f82011682018060405250810190610aef9190612a7b565b506001600160701b031691506001600160701b031691506000610b158e8e85858d6120a5565b6000546040516306649d6760e01b81529192506001600160a01b0316906306649d6790610b4890849089906004016133e0565b602060405180830381600087803b158015610b6257600080fd5b505af1158015610b76573d6000803e3d6000fd5b505050506040513d601f19601f82011682018060405250810190610b9a9190612ae7565b600087815260026020526040808220600b0192909255905160ff7f0000000000000000000000000000000000000000000000000000000000000000169188917f03d87a0db9f255a83b85d64d1e31d04ca94ac564c50b44f6ba9d52a731e441dc9190a350505050509b9a5050505050505050505050565b7f000000000000000000000000000000000000000000000000000000000000000081565b60008181526002602052604090206001548210610c645760405162461bcd60e51b81526004016103dd9061323d565b600c810154600160a01b900460ff1615610c905760405162461bcd60e51b81526004016103dd90613182565b600054600b8201546040516325fa700360e01b81526001600160a01b03909216916325fa700391610cc3916004016133d7565b60206040518083038186803b158015610cdb57600080fd5b505afa158015610cef573d6000803e3d6000fd5b505050506040513d601f19601f82011682018060405250810190610d139190612a5b565b610d2f5760405162461bcd60e51b81526004016103dd90612fd2565b8060090154421115610d535760405162461bcd60e51b81526004016103dd90613109565b8054600182015460008054600b8501546101009094046001600160a01b039081169493811693911690634023282b908515610d8e5785610e1f565b7f00000000000000000000000000000000000000000000000000000000000000006001600160a01b031663ad5c46486040518163ffffffff1660e01b815260040160206040518083038186803b158015610de757600080fd5b505afa158015610dfb573d6000803e3d6000fd5b505050506040513d601f19601f82011682018060405250810190610e1f91906128e2565b87600201546040518463ffffffff1660e01b8152600401610e42939291906133f7565b60206040518083038186803b158015610e5a57600080fd5b505afa158015610e6e573d6000803e3d6000fd5b505050506040513d601f19601f82011682018060405250810190610e929190612ae7565b60008054600b8701546003880154604051634023282b60e01b815294955092936001600160a01b0390921692634023282b92610ed3929188916004016133f7565b60206040518083038186803b158015610eeb57600080fd5b505afa158015610eff573d6000803e3d6000fd5b505050506040513d601f19601f82011682018060405250810190610f239190612ae7565b905084600201548111610f3c5784600301549150610f43565b5060028401545b6000610f907f0000000000000000000000000000000000000000000000000000000000000000610f8088600501548561217a90919063ffffffff16565b81610f8757fe5b849190046121b7565b90506000610fdf7f0000000000000000000000000000000000000000000000000000000000000000610fcf89600501548761217a90919063ffffffff16565b81610fd657fe5b869190046121b7565b600c8801805460ff60a01b1916600160a01b179055875490915060ff9081167f0000000000000000000000000000000000000000000000000000000000000000909116141561103b576110368686858786866121da565b6110ae565b86547f000000000000000000000000000000000000000000000000000000000000000060ff908116911614156110ae57600061109887877f0000000000000000000000000000000000000000000000000000000000000000611ee1565b90506110ac8787838b6004015487876123ef565b505b60405188907f524f8e6c94465b4ab34a95b899f86628f3f6445ae120c4dacc9b3a67011dc25990600090a25050505050505050565b7f000000000000000000000000000000000000000000000000000000000000000081565b60007f00000000000000000000000000000000000000000000000000000000000000006001600160a01b0316826001600160a01b0316148061117a57507f00000000000000000000000000000000000000000000000000000000000000006001600160a01b0316826001600160a01b0316145b6111965760405162461bcd60e51b81526004016103dd90612d97565b336001600160a01b037f000000000000000000000000000000000000000000000000000000000000000016146111de5760405162461bcd60e51b81526004016103dd90612cef565b896001600160a01b03168b6001600160a01b031614156112105760405162461bcd60e51b81526004016103dd9061308e565b896001600160a01b03168b6001600160a01b0316106112415760405162461bcd60e51b81526004016103dd90612f8f565b6000891180156112515750600088115b61126d5760405162461bcd60e51b81526004016103dd9061313e565b7f00000000000000000000000000000000000000000000000000000000000000008711156112ad5760405162461bcd60e51b81526004016103dd90613274565b824211156112cd5760405162461bcd60e51b81526004016103dd90613109565b601e84116112ed5760405162461bcd60e51b81526004016103dd9061304c565b6001600160a01b038b16611320578847101561131b5760405162461bcd60e51b81526004016103dd90612e84565b6113bc565b6040516370a0823160e01b815289906001600160a01b038d16906370a082319061134e903090600401612c1f565b60206040518083038186803b15801561136657600080fd5b505afa15801561137a573d6000803e3d6000fd5b505050506040513d601f19601f8201168201806040525081019061139e9190612ae7565b10156113bc5760405162461bcd60e51b81526004016103dd90612d53565b6040516370a0823160e01b815288906001600160a01b038c16906370a08231906113ea903090600401612c1f565b60206040518083038186803b15801561140257600080fd5b505afa158015611416573d6000803e3d6000fd5b505050506040513d601f19601f8201168201806040525081019061143a9190612ae7565b10156114585760405162461bcd60e51b81526004016103dd906130c5565b60006114658c8c85611ee1565b905061146f612028565b9150604051806101e001604052807f000000000000000000000000000000000000000000000000000000000000000060ff1681526020018d6001600160a01b031681526020018c6001600160a01b031681526020018b81526020018a815260200160008152602001898152602001888152602001878152602001826001600160a01b0316815260200185815260200186815260200160008152602001846001600160a01b03168152602001600015158152506002600084815260200190815260200160002060008201518160000160006101000a81548160ff021916908360ff16021790555060208201518160000160016101000a8154816001600160a01b0302191690836001600160a01b0316021790555060408201518160010160006101000a8154816001600160a01b0302191690836001600160a01b03160217905550606082015181600201556080820151816003015560a0820151816004015560c0820151816005015560e0820151816006015561010082015181600701556101208201518160080160006101000a8154816001600160a01b0302191690836001600160a01b03160217905550610140820151816009015561016082015181600a015561018082015181600b01556101a082015181600c0160006101000a8154816001600160a01b0302191690836001600160a01b031602179055506101c082015181600c0160146101000a81548160ff0219169083151502179055509050507f000000000000000000000000000000000000000000000000000000000000000060ff16827f03d87a0db9f255a83b85d64d1e31d04ca94ac564c50b44f6ba9d52a731e441dc60405160405180910390a3600080826001600160a01b0316630902f1ac6040518163ffffffff1660e01b815260040160606040518083038186803b15801561171a57600080fd5b505afa15801561172e573d6000803e3d6000fd5b505050506040513d601f19601f820116820180604052508101906117529190612a7b565b506001600160701b031691506001600160701b03169150886000148015611777575087155b8015611781575081155b801561178b575080155b156117fa576000848152600260208190526040909120600c8101805460ff60a01b1916600160a01b17905501546117ca908f908f908f908f90806121da565b60405184907f524f8e6c94465b4ab34a95b899f86628f3f6445ae120c4dacc9b3a67011dc25990600090a26118a2565b60006118098d8d85858c6120a5565b6000546040516306649d6760e01b81529192506001600160a01b0316906306649d679061183c90849088906004016133e0565b602060405180830381600087803b15801561185657600080fd5b505af115801561186a573d6000803e3d6000fd5b505050506040513d601f19601f8201168201806040525081019061188e9190612ae7565b6000868152600260205260409020600b0155505b5050509a9950505050505050505050565b7f000000000000000000000000000000000000000000000000000000000000000081565b600081815260026020526040902060098101544211156119095760405162461bcd60e51b81526004016103dd90613109565b600054600b8201546040516325fa700360e01b81526001600160a01b03909216916325fa70039161193c916004016133d7565b60206040518083038186803b15801561195457600080fd5b505afa158015611968573d6000803e3d6000fd5b505050506040513d601f19601f8201168201806040525081019061198c9190612a5b565b156119a95760405162461bcd60e51b81526004016103dd906131b9565b60006119ff7f00000000000000000000000000000000000000000000000000000000000000006119f97f00000000000000000000000000000000000000000000000000000000000000003a61217a565b906126af565b90506000808360080160009054906101000a90046001600160a01b03166001600160a01b0316630902f1ac6040518163ffffffff1660e01b815260040160606040518083038186803b158015611a5457600080fd5b505afa158015611a68573d6000803e3d6000fd5b505050506040513d601f19601f82011682018060405250810190611a8c9190612a7b565b506001600160701b031691506001600160701b0316915083600601548210158015611abb575083600701548110155b611ad75760405162461bcd60e51b81526004016103dd90613015565b600054600b850154604051634155c48560e11b81526001600160a01b03909216916382ab890a91611b0a916004016133d7565b600060405180830381600087803b158015611b2457600080fd5b505af1158015611b38573d6000803e3d6000fd5b50505050824710611b4d57611b4d3384611d68565b5050505050565b336001600160a01b037f00000000000000000000000000000000000000000000000000000000000000001614611b9c5760405162461bcd60e51b81526004016103dd90612cef565b611bc67f000000000000000000000000000000000000000000000000000000000000000082611d68565b50565b7f000000000000000000000000000000000000000000000000000000000000000081565b336001600160a01b037f00000000000000000000000000000000000000000000000000000000000000001614611c355760405162461bcd60e51b81526004016103dd90612cef565b611c60827f000000000000000000000000000000000000000000000000000000000000000083611dfa565b5050565b7f000000000000000000000000000000000000000000000000000000000000000081565b611c90612843565b5060009081526002602081815260409283902083516101e081018552815460ff80821683526001600160a01b0361010092839004811695840195909552600184015485169683019690965293820154606082015260038201546080820152600482015460a0820152600582015460c0820152600682015460e0820152600782015493810193909352600881015482166101208401526009810154610140840152600a810154610160840152600b810154610180840152600c01549081166101a0830152600160a01b900490911615156101c082015290565b604080516000808252602082019092526001600160a01b038416908390604051611d929190612b90565b60006040518083038185875af1925050503d8060008114611dcf576040519150601f19603f3d011682016040523d82523d6000602084013e611dd4565b606091505b5050905080611df55760405162461bcd60e51b81526004016103dd906131fa565b505050565b60006060846001600160a01b031663a9059cbb8585604051602401611e20929190612cd6565b6040516020818303038152906040529060e01b6020820180516001600160e01b038381831617835250505050604051611e599190612b90565b6000604051808303816000865af19150503d8060008114611e96576040519150601f19603f3d011682016040523d82523d6000602084013e611e9b565b606091505b5091509150818015611ec5575080511580611ec5575080806020019051810190611ec59190612a5b565b611b4d5760405162461bcd60e51b81526004016103dd90612dce565b60007f00000000000000000000000000000000000000000000000000000000000000006001600160a01b0316826001600160a01b03161480611f5457507f00000000000000000000000000000000000000000000000000000000000000006001600160a01b0316826001600160a01b0316145b611f705760405162461bcd60e51b81526004016103dd90612d97565b6001600160a01b038416611fa2577f000000000000000000000000000000000000000000000000000000000000000093505b60405163e6a4390560e01b81526001600160a01b0383169063e6a4390590611fd09087908790600401612c33565b60206040518083038186803b158015611fe857600080fd5b505afa158015611ffc573d6000803e3d6000fd5b505050506040513d601f19601f8201168201806040525081019061202091906128e2565b949350505050565b6001805480820190915590565b600080600061204485856126d2565b9150915085828260405160200161205c929190612b69565b60405160208183030381529060405280519060200120604051602001612083929190612bc9565b60408051601f1981840301815291905280516020909101209695505050505050565b600080841180156120b65750600083115b1561216e5760006120c785856126af565b6120fb7f00000000000000000000000000000000000000000000000000000000000000006120f58a8a6126af565b9061217a565b8161210257fe5b0490506103e881101561211857601e9150612156565b6109c481101561212b57603c9150612156565b61138881101561213e57605a9150612156565b6127108110156121515760789150612156565b609691505b828211156121645782612166565b815b915050612171565b50805b95945050505050565b60008115806121955750508082028282828161219257fe5b04145b6121b15760405162461bcd60e51b81526004016103dd90612eb9565b92915050565b808203828111156121b15760405162461bcd60e51b81526004016103dd90612d24565b600080806001600160a01b038916612284577f00000000000000000000000000000000000000000000000000000000000000006001600160a01b031663d0e30db0886040518263ffffffff1660e01b81526004016000604051808303818588803b15801561224757600080fd5b505af115801561225b573d6000803e3d6000fd5b50505050507f000000000000000000000000000000000000000000000000000000000000000098505b6122af897f00000000000000000000000000000000000000000000000000000000000000008961275c565b6122da887f00000000000000000000000000000000000000000000000000000000000000008861275c565b60405162e8e33760e81b81526001600160a01b037f0000000000000000000000000000000000000000000000000000000000000000169063e8e3370090612333908c908c908c908c908c908c9030904290600401612c8d565b606060405180830381600087803b15801561234d57600080fd5b505af1158015612361573d6000803e3d6000fd5b505050506040513d601f19601f820116820180604052508101906123859190612b22565b919450925090506123b8897f0000000000000000000000000000000000000000000000000000000000000000600061275c565b6123e4887f0000000000000000000000000000000000000000000000000000000000000000600061275c565b505050505050505050565b6001600160a01b038616156124045785612426565b7f00000000000000000000000000000000000000000000000000000000000000005b9550612453847f00000000000000000000000000000000000000000000000000000000000000008561275c565b6000807f00000000000000000000000000000000000000000000000000000000000000006001600160a01b031663baa2abde898988888830426040518863ffffffff1660e01b81526004016124ae9796959493929190612c4d565b6040805180830381600087803b1580156124c757600080fd5b505af11580156124db573d6000803e3d6000fd5b505050506040513d601f19601f820116820180604052508101906124ff9190612aff565b9150915061252f867f0000000000000000000000000000000000000000000000000000000000000000600061275c565b7f00000000000000000000000000000000000000000000000000000000000000006001600160a01b0316886001600160a01b031614156125ec57604051632e1a7d4d60e01b81526001600160a01b037f00000000000000000000000000000000000000000000000000000000000000001690632e1a7d4d906125b59085906004016133d7565b600060405180830381600087803b1580156125cf57600080fd5b505af11580156125e3573d6000803e3d6000fd5b505050506126a5565b7f00000000000000000000000000000000000000000000000000000000000000006001600160a01b0316876001600160a01b031614156126a557604051632e1a7d4d60e01b81526001600160a01b037f00000000000000000000000000000000000000000000000000000000000000001690632e1a7d4d906126729084906004016133d7565b600060405180830381600087803b15801561268c57600080fd5b505af11580156126a0573d6000803e3d6000fd5b505050505b5050505050505050565b808201828110156121b15760405162461bcd60e51b81526004016103dd90612ee7565b600080826001600160a01b0316846001600160a01b031614156127075760405162461bcd60e51b81526004016103dd90612f4c565b826001600160a01b0316846001600160a01b03161061272757828461272a565b83835b90925090506001600160a01b0382166127555760405162461bcd60e51b81526004016103dd90612e4d565b9250929050565b60006060846001600160a01b031663095ea7b38585604051602401612782929190612cd6565b6040516020818303038152906040529060e01b6020820180516001600160e01b0383818316178352505050506040516127bb9190612b90565b6000604051808303816000865af19150503d80600081146127f8576040519150601f19603f3d011682016040523d82523d6000602084013e6127fd565b606091505b50915091508180156128275750805115806128275750808060200190518101906128279190612a5b565b611b4d5760405162461bcd60e51b81526004016103dd90612f15565b604051806101e00160405280600060ff16815260200160006001600160a01b0316815260200160006001600160a01b0316815260200160008152602001600081526020016000815260200160008152602001600081526020016000815260200160006001600160a01b0316815260200160008152602001600081526020016000815260200160006001600160a01b031681526020016000151581525090565b6000602082840312156128f3578081fd5b81516128fe81613424565b9392505050565b6000806000806000806000806000806101408b8d031215612924578586fd5b8a3561292f81613424565b995060208b013561293f81613424565b985060408b0135975060608b0135965060808b0135955060a08b0135945060c08b0135935060e08b013592506101008b013591506101208b013561298281613424565b809150509295989b9194979a5092959850565b60008060008060008060008060008060006101608c8e0312156129b6578081fd5b8b356129c181613424565b9a5060208c01356129d181613424565b995060408c0135985060608c0135975060808c0135965060a08c0135955060c08c0135945060e08c013593506101008c013592506101208c013591506101408c0135612a1c81613424565b809150509295989b509295989b9093969950565b60008060408385031215612a42578182fd5b8235612a4d81613424565b946020939093013593505050565b600060208284031215612a6c578081fd5b815180151581146128fe578182fd5b600080600060608486031215612a8f578283fd5b8351612a9a81613439565b6020850151909350612aab81613439565b604085015190925063ffffffff81168114612ac4578182fd5b809150509250925092565b600060208284031215612ae0578081fd5b5035919050565b600060208284031215612af8578081fd5b5051919050565b60008060408385031215612b11578182fd5b505080516020909101519092909150565b600080600060608486031215612b36578283fd5b8351925060208401519150604084015190509250925092565b6001600160a01b03169052565b15159052565b60ff169052565b6bffffffffffffffffffffffff19606093841b811682529190921b16601482015260280190565b60008251815b81811015612bb05760208186018101518583015201612b96565b81811115612bbe5782828501525b509190910192915050565b6001600160f81b0319815260609290921b6bffffffffffffffffffffffff1916600183015260158201527f2f84bfc2d5814eb78c2edc1ee128b9e6c81836cc067b96f9bb51c2bbcc830296603582015260550190565b6001600160a01b0391909116815260200190565b6001600160a01b0392831681529116602082015260400190565b6001600160a01b039788168152958716602087015260408601949094526060850192909252608084015290921660a082015260c081019190915260e00190565b6001600160a01b039889168152968816602088015260408701959095526060860193909352608085019190915260a084015290921660c082015260e08101919091526101000190565b6001600160a01b03929092168252602082015260400190565b6020808252818101527f4465785377617052656c617965723a2043414c4c45525f4e4f545f4f574e4552604082015260600190565b60208082526015908201527464732d6d6174682d7375622d756e646572666c6f7760581b604082015260600190565b60208082526024908201527f4465785377617052656c617965723a20494e53554646494349454e545f544f4b604082015263454e5f4160e01b606082015260800190565b6020808252601f908201527f4465785377617052656c617965723a20494e56414c49445f464143544f525900604082015260600190565b6020808252601f908201527f5472616e7366657248656c7065723a205452414e534645525f4641494c454400604082015260600190565b60208082526028908201527f4465785377617052656c617965723a20494e56414c49445f4c495155494449546040820152671657d05353d5539560c21b606082015260800190565b6020808252601c908201527f446578537761704c6962726172793a205a45524f5f4144445245535300000000604082015260600190565b6020808252818101527f4465785377617052656c617965723a20494e53554646494349454e545f455448604082015260600190565b60208082526014908201527364732d6d6174682d6d756c2d6f766572666c6f7760601b604082015260600190565b60208082526014908201527364732d6d6174682d6164642d6f766572666c6f7760601b604082015260600190565b6020808252601e908201527f5472616e7366657248656c7065723a20415050524f56455f4641494c45440000604082015260600190565b60208082526023908201527f446578537761704c6962726172793a204944454e544943414c5f41444452455360408201526253455360e81b606082015260800190565b60208082526023908201527f4465785377617052656c617965723a20494e56414c49445f544f4b454e5f4f526040820152622222a960e91b606082015260800190565b60208082526023908201527f4465785377617052656c617965723a204f42534552564154494f4e5f52554e4e604082015262494e4760e81b606082015260800190565b6020808252601e908201527f4465785377617052656c617965723a20524553455256455f544f5f4c4f570000604082015260600190565b60208082526022908201527f4465785377617052656c617965723a20494e56414c49445f57494e444f5754496040820152614d4560f01b606082015260800190565b6020808252601c908201527f4465785377617052656c617965723a20494e56414c49445f5041495200000000604082015260600190565b60208082526024908201527f4465785377617052656c617965723a20494e53554646494349454e545f544f4b60408201526322a72fa160e11b606082015260800190565b6020808252818101527f4465785377617052656c617965723a20444541444c494e455f52454143484544604082015260600190565b60208082526024908201527f4465785377617052656c617965723a20494e56414c49445f544f4b454e5f414d60408201526313d5539560e21b606082015260800190565b6020808252601e908201527f4465785377617052656c617965723a204f524445525f45584543555445440000604082015260600190565b60208082526021908201527f4465785377617052656c617965723a204f42534552564154494f4e5f454e44456040820152601160fa1b606082015260800190565b60208082526023908201527f5472616e7366657248656c7065723a204554485f5452414e534645525f46414960408201526213115160ea1b606082015260800190565b6020808252601d908201527f4465785377617052656c617965723a20494e56414c49445f4f52444552000000604082015260600190565b60208082526021908201527f4465785377617052656c617965723a20494e56414c49445f544f4c4552414e436040820152604560f81b606082015260800190565b60208082526024908201527f4465785377617052656c617965723a20444541444c494e455f4e4f545f52454160408201526310d2115160e21b606082015260800190565b60006101e08201905061330d828451612b62565b602083015161331f6020840182612b4f565b5060408301516133326040840182612b4f565b50606083015160608301526080830151608083015260a083015160a083015260c083015160c083015260e083015160e08301526101008084015181840152506101208084015161338482850182612b4f565b50506101408381015190830152610160808401519083015261018080840151908301526101a0808401516133ba82850182612b4f565b50506101c0808401516133cf82850182612b5c565b505092915050565b90815260200190565b9182526001600160a01b0316602082015260400190565b9283526001600160a01b03919091166020830152604082015260600190565b60ff91909116815260200190565b6001600160a01b0381168114611bc657600080fd5b6001600160701b0381168114611bc657600080fdfea2646970667358221220e0bf78807936593bb8a154569e136d49896fb811181f3cfb9994967501b73f3f64736f6c634300060c0033",
  "immutableReferences": {
    "3465": [
      {
        "length": 32,
        "start": 1472
      },
      {
        "length": 32,
        "start": 6612
      }
    ],
    "3468": [
      {
        "length": 32,
        "start": 1878
      },
      {
        "length": 32,
        "start": 3914
      },
      {
        "length": 32,
        "start": 3993
      },
      {
        "length": 32,
        "start": 4719
      },
      {
        "length": 32,
        "start": 7270
      },
      {
        "length": 32,
        "start": 8396
      }
    ],
    "3471": [
      {
        "length": 32,
        "start": 6576
      },
      {
        "length": 32,
        "start": 7115
      }
    ],
    "3474": [
      {
        "length": 32,
        "start": 4096
      },
      {
        "length": 32,
        "start": 5247
      },
      {
        "length": 32,
        "start": 5775
      },
      {
        "length": 32,
        "start": 6325
      }
    ],
    "3477": [
      {
        "length": 32,
        "start": 1364
      },
      {
        "length": 32,
        "start": 2043
      },
      {
        "length": 32,
        "start": 2998
      },
      {
        "length": 32,
        "start": 4159
      }
    ],
    "3479": [
      {
        "length": 32,
        "start": 928
      },
      {
        "length": 32,
        "start": 1147
      },
      {
        "length": 32,
        "start": 1195
      },
      {
        "length": 32,
        "start": 1238
      },
      {
        "length": 32,
        "start": 1660
      },
      {
        "length": 32,
        "start": 3091
      },
      {
        "length": 32,
        "start": 4513
      },
      {
        "length": 32,
        "start": 7007
      },
      {
        "length": 32,
        "start": 7073
      },
      {
        "length": 32,
        "start": 7160
      },
      {
        "length": 32,
        "start": 7227
      }
    ],
    "3481": [
      {
        "length": 32,
        "start": 1328
      },
      {
        "length": 32,
        "start": 1510
      },
      {
        "length": 32,
        "start": 2643
      },
      {
        "length": 32,
        "start": 4212
      },
      {
        "length": 32,
        "start": 4363
      },
      {
        "length": 32,
        "start": 7909
      }
    ],
    "3483": [
      {
        "length": 32,
        "start": 863
      },
      {
        "length": 32,
        "start": 3472
      },
      {
        "length": 32,
        "start": 8842
      },
      {
        "length": 32,
        "start": 8885
      },
      {
        "length": 32,
        "start": 8944
      },
      {
        "length": 32,
        "start": 9106
      },
      {
        "length": 32,
        "start": 9150
      },
      {
        "length": 32,
        "start": 9262
      },
      {
        "length": 32,
        "start": 9304
      },
      {
        "length": 32,
        "start": 9481
      }
    ],
    "3485": [
      {
        "length": 32,
        "start": 1436
      },
      {
        "length": 32,
        "start": 1569
      },
      {
        "length": 32,
        "start": 4422
      },
      {
        "length": 32,
        "start": 7968
      }
    ],
    "3487": [
      {
        "length": 32,
        "start": 1400
      }
    ],
    "3489": [
      {
        "length": 32,
        "start": 2602
      },
      {
        "length": 32,
        "start": 4325
      },
      {
        "length": 32,
        "start": 8064
      },
      {
        "length": 32,
        "start": 8686
      },
      {
        "length": 32,
        "start": 8802
      },
      {
        "length": 32,
        "start": 9222
      },
      {
        "length": 32,
        "start": 9521
      },
      {
        "length": 32,
        "start": 9600
      },
      {
        "length": 32,
        "start": 9710
      },
      {
        "length": 32,
        "start": 9789
      }
    ]
  },
  "source": "// SPDX-License-Identifier: GPL-3.0\npragma solidity ^0.6.6  ;\npragma experimental ABIEncoderV2;\n\nimport './OracleCreator.sol';\nimport './../interfaces/IDexSwapFactory.sol';\nimport './../interfaces/IDexSwapRouter.sol';\nimport './../libraries/TransferHelper.sol';\nimport './../interfaces/IERC20.sol';\nimport './../interfaces/IWETH.sol';\nimport './../libraries/SafeMath.sol';\nimport './../libraries/DexSwapLibrary.sol';\n\ncontract DexSwapRelayer {\n    using SafeMath for uint256;\n\n    event NewOrder(\n        uint256 indexed _orderIndex,\n        uint8 indexed _action\n    );\n\n    event ExecutedOrder(\n        uint256 indexed _orderIndex\n    );\n\n    event WithdrawnExpiredOrder(\n        uint256 indexed _orderIndex\n    );\n\n    struct Order {\n        uint8 action; // 1=provision; 2=removal\n        address tokenA;\n        address tokenB;\n        uint256 amountA;\n        uint256 amountB;\n        uint256 liquidity;\n        uint256 priceTolerance;\n        uint256 minReserveA;\n        uint256 minReserveB;\n        address oraclePair;\n        uint256 deadline;\n        uint256 maxWindowTime;\n        uint256 oracleId;\n        address factory;\n        bool executed;\n    }\n\n    uint256 public immutable GAS_ORACLE_UPDATE = 168364;\n    uint256 public immutable PARTS_PER_MILLION = 1000000;\n    uint256 public immutable BOUNTY = 0.01 ether; // To be decided\n    uint8 public immutable PROVISION = 1;\n    uint8 public immutable REMOVAL = 2;\n\n    address payable public immutable owner;\n    address public immutable dexSwapFactory;\n    address public immutable dexSwapRouter;\n    address public immutable uniswapFactory;\n    address public immutable uniswapRouter;\n    address public immutable WETH;\n\n    OracleCreator oracleCreator;\n    uint256 public orderCount;\n    mapping(uint256 => Order) orders;\n\n    constructor(\n        address payable _owner,\n        address _dexSwapFactory,\n        address _dexSwapRouter,\n        address _uniswapFactory,\n        address _uniswapRouter,\n        address _WETH,\n        OracleCreator _oracleCreater\n    ) public {\n        owner = _owner;\n        dexSwapFactory = _dexSwapFactory;\n        dexSwapRouter = _dexSwapRouter;\n        uniswapFactory = _uniswapFactory;\n        uniswapRouter = _uniswapRouter;\n        WETH = _WETH;\n        oracleCreator = _oracleCreater;\n    }\n\n    function orderLiquidityProvision(\n        address tokenA,\n        address tokenB,\n        uint256 amountA,\n        uint256 amountB,\n        uint256 priceTolerance,\n        uint256 minReserveA,\n        uint256 minReserveB,\n        uint256 maxWindowTime,\n        uint256 deadline,\n        address factory\n    ) external payable returns (uint256 orderIndex) {\n        require(factory == dexSwapFactory || factory == uniswapFactory, 'DexSwapRelayer: INVALID_FACTORY');\n        require(msg.sender == owner, 'DexSwapRelayer: CALLER_NOT_OWNER');\n        require(tokenA != tokenB, 'DexSwapRelayer: INVALID_PAIR');\n        require(tokenA < tokenB, 'DexSwapRelayer: INVALID_TOKEN_ORDER');\n        require(amountA > 0 && amountB > 0, 'DexSwapRelayer: INVALID_TOKEN_AMOUNT');\n        require(priceTolerance <= PARTS_PER_MILLION, 'DexSwapRelayer: INVALID_TOLERANCE');\n        require(block.timestamp <= deadline, 'DexSwapRelayer: DEADLINE_REACHED');\n        require(maxWindowTime > 30, 'DexSwapRelayer: INVALID_WINDOWTIME');\n        \n        if (tokenA == address(0)) {\n            require(address(this).balance >= amountA, 'DexSwapRelayer: INSUFFICIENT_ETH');\n        } else {\n            require(IERC20(tokenA).balanceOf(address(this)) >= amountA, 'DexSwapRelayer: INSUFFICIENT_TOKEN_A');\n        }\n        require(IERC20(tokenB).balanceOf(address(this)) >= amountB, 'DexSwapRelayer: INSUFFICIENT_TOKEN_B');\n\n        address pair = _pair(tokenA, tokenB, factory);\n        orderIndex = _OrderIndex();\n        orders[orderIndex] = Order({\n            action: PROVISION,\n            tokenA: tokenA,\n            tokenB: tokenB,\n            amountA: amountA,\n            amountB: amountB,\n            liquidity: 0,\n            priceTolerance: priceTolerance,\n            minReserveA: minReserveA,\n            minReserveB: minReserveB,\n            oraclePair: pair,\n            deadline: deadline,\n            maxWindowTime: maxWindowTime,\n            oracleId: 0,\n            factory: factory,\n            executed: false\n        });\n        emit NewOrder(orderIndex, PROVISION);\n\n        (uint reserveA, uint reserveB,) = IDexSwapPair(pair).getReserves();\n        if (minReserveA == 0 && minReserveB == 0 && reserveA == 0 && reserveB == 0) {\n            /* Non-circulating tokens can be provisioned immediately if reserve thresholds are set to zero */\n            orders[orderIndex].executed = true;\n            _pool(tokenA, tokenB, amountA, amountB, orders[orderIndex].amountA, orders[orderIndex].amountA);\n            emit ExecutedOrder(orderIndex);\n        } else {\n            /* Create an oracle to calculate average price before providing liquidity */\n            uint256 windowTime = _consultOracleParameters(amountA, amountB, reserveA, reserveB, maxWindowTime);\n            orders[orderIndex].oracleId = oracleCreator.createOracle(windowTime, pair);\n        }\n    }\n\n    function orderLiquidityRemoval(\n        address tokenA,\n        address tokenB,\n        uint256 liquidity,\n        uint256 amountA,\n        uint256 amountB,\n        uint256 priceTolerance,\n        uint256 minReserveA,\n        uint256 minReserveB,\n        uint256 maxWindowTime,\n        uint256 deadline,\n        address factory\n    ) external returns (uint256 orderIndex) {\n        require(factory == dexSwapFactory || factory == uniswapFactory, 'DexSwapRelayer: INVALID_FACTORY');\n        require(msg.sender == owner, 'DexSwapRelayer: CALLER_NOT_OWNER');\n        require(tokenA != tokenB, 'DexSwapRelayer: INVALID_PAIR');\n        require(tokenA < tokenB, 'DexSwapRelayer: INVALID_TOKEN_ORDER');\n        require(amountA > 0 && amountB > 0 && liquidity > 0, 'DexSwapRelayer: INVALID_LIQUIDITY_AMOUNT');\n        require(priceTolerance <= PARTS_PER_MILLION, 'DexSwapRelayer: INVALID_TOLERANCE');\n        require(block.timestamp <= deadline, 'DexSwapRelayer: DEADLINE_REACHED');\n        require(maxWindowTime > 30, 'DexSwapRelayer: INVALID_WINDOWTIME');\n\n        address pair = _pair(tokenA, tokenB, factory);\n        orderIndex = _OrderIndex();\n        orders[orderIndex] = Order({\n            action: REMOVAL,\n            tokenA: tokenA,\n            tokenB: tokenB,\n            amountA: amountA,\n            amountB: amountB,\n            liquidity: liquidity,\n            priceTolerance: priceTolerance,\n            minReserveA: minReserveA,\n            minReserveB: minReserveB,\n            oraclePair: pair,\n            deadline: deadline,\n            maxWindowTime: maxWindowTime,\n            oracleId: 0,\n            factory: factory,\n            executed: false\n        });\n\n        tokenA = tokenA == address(0) ? WETH : tokenA;\n        address dexSwapPair = DexSwapLibrary.pairFor(address(dexSwapFactory), tokenA, tokenB);\n        (uint reserveA, uint reserveB,) = IDexSwapPair(dexSwapPair).getReserves();\n        uint256 windowTime = _consultOracleParameters(amountA, amountB, reserveA, reserveB, maxWindowTime);\n        orders[orderIndex].oracleId = oracleCreator.createOracle(windowTime, pair);\n        emit NewOrder(orderIndex, REMOVAL);\n    }\n\n    function executeOrder(uint256 orderIndex) external {\n        Order storage order = orders[orderIndex];\n        require(orderIndex < orderCount, 'DexSwapRelayer: INVALID_ORDER');\n        require(!order.executed, 'DexSwapRelayer: ORDER_EXECUTED');\n        require(oracleCreator.isOracleFinalized(order.oracleId) , 'DexSwapRelayer: OBSERVATION_RUNNING');\n        require(block.timestamp <= order.deadline, 'DexSwapRelayer: DEADLINE_REACHED');\n\n        address tokenA = order.tokenA;\n        address tokenB = order.tokenB;\n        uint256 amountB;\n        amountB = oracleCreator.consult(\n          order.oracleId,\n          tokenA == address(0) ? IDexSwapRouter(dexSwapRouter).WETH() : tokenA,\n          order.amountA \n        );\n        uint256 amountA = oracleCreator.consult(order.oracleId, tokenB, order.amountB);\n        \n        /* Maximize token inputs */ \n        if(amountA <= order.amountA){\n            amountB = order.amountB;\n        } else {\n            amountA = order.amountA;\n        }\n        uint256 minA = amountA.sub(amountA.mul(order.priceTolerance) / PARTS_PER_MILLION);\n        uint256 minB = amountB.sub(amountB.mul(order.priceTolerance) / PARTS_PER_MILLION);\n\n        order.executed = true;\n        if(order.action == PROVISION){\n            _pool(tokenA, tokenB, amountA, amountB, minA, minB);\n        } else if (order.action == REMOVAL){\n            address pair = _pair(tokenA, tokenB, dexSwapFactory);\n            _unpool(\n              tokenA, \n              tokenB, \n              pair, \n              order.liquidity,\n              minA,\n              minB\n            );\n        }\n        emit ExecutedOrder(orderIndex);\n    }\n\n    // Updates a price oracle and sends a bounty to msg.sender\n    function updateOracle(uint256 orderIndex) external {\n        Order storage order = orders[orderIndex];\n        require(block.timestamp <= order.deadline, 'DexSwapRelayer: DEADLINE_REACHED');\n        require(!oracleCreator.isOracleFinalized(order.oracleId) , 'DexSwapRelayer: OBSERVATION_ENDED');\n        uint256 amountBounty = GAS_ORACLE_UPDATE.mul(tx.gasprice).add(BOUNTY);\n        \n        (uint reserveA, uint reserveB,) = IDexSwapPair(order.oraclePair).getReserves();\n        require(\n            reserveA >= order.minReserveA && reserveB >= order.minReserveB,\n            'DexSwapRelayer: RESERVE_TO_LOW'\n        );\n        oracleCreator.update(order.oracleId);\n        if(address(this).balance >= amountBounty){\n            TransferHelper.safeTransferETH(msg.sender, amountBounty);\n        }\n    }\n\n    function withdrawExpiredOrder(uint256 orderIndex) external {\n        Order storage order = orders[orderIndex];\n        require(msg.sender == owner, 'DexSwapRelayer: CALLER_NOT_OWNER');\n        require(block.timestamp > order.deadline, 'DexSwapRelayer: DEADLINE_NOT_REACHED');\n        require(order.executed == false, 'DexSwapRelayer: ORDER_EXECUTED');\n        address tokenA = order.tokenA;\n        address tokenB = order.tokenB;\n        uint256 amountA = order.amountA;\n        uint256 amountB = order.amountB;\n        order.executed = true;\n\n        if (tokenA == address(0)) {\n            TransferHelper.safeTransferETH(owner, amountA);\n        } else {\n            TransferHelper.safeTransfer(tokenA, owner, amountA);\n        }\n        TransferHelper.safeTransfer(tokenB, owner, amountB);\n        emit WithdrawnExpiredOrder(orderIndex);\n    }\n    \n    function _pool(\n        address _tokenA,\n        address _tokenB,\n        uint256 _amountA,\n        uint256 _amountB,\n        uint256 _minA,\n        uint256 _minB\n    ) internal {\n        uint256 amountA;\n        uint256 amountB;\n        uint256 liquidity;\n        if(_tokenA == address(0)){\n          IWETH(WETH).deposit{value: _amountA}();\n          _tokenA = WETH;\n        }\n        TransferHelper.safeApprove(_tokenA, dexSwapRouter, _amountA);\n        TransferHelper.safeApprove(_tokenB, dexSwapRouter, _amountB);\n        (amountA, amountB, liquidity) = IDexSwapRouter(dexSwapRouter).addLiquidity(\n            _tokenA,\n            _tokenB,\n            _amountA,\n            _amountB,\n            _minA,\n            _minB,\n            address(this),\n            block.timestamp\n        );\n        TransferHelper.safeApprove(_tokenA, dexSwapRouter, 0);\n        TransferHelper.safeApprove(_tokenB, dexSwapRouter, 0);\n    }\n\n    function _unpool(\n        address _tokenA,\n        address _tokenB,\n        address _pair,\n        uint256 _liquidity,\n        uint256 _minA,\n        uint256 _minB\n    ) internal {\n        _tokenA = _tokenA == address(0) ? WETH : _tokenA;\n        TransferHelper.safeApprove(_pair, dexSwapRouter, _liquidity);\n        (uint amountA, uint amountB) = IDexSwapRouter(dexSwapRouter).removeLiquidity(\n            _tokenA,\n            _tokenB,\n            _liquidity,\n            _minA,\n            _minB,\n            address(this),\n            block.timestamp\n        );\n        TransferHelper.safeApprove(_pair, dexSwapRouter, 0);\n        if(_tokenA == WETH){\n          IWETH(WETH).withdraw(amountA);\n        } else if (_tokenB == WETH){\n          IWETH(WETH).withdraw(amountB);\n        }\n    }\n\n    // Internal function to calculate the optimal time window for price observation\n    function _consultOracleParameters(\n        uint256 amountA,\n        uint256 amountB,\n        uint256 reserveA,\n        uint256 reserveB,\n        uint256 maxWindowTime\n    ) internal view returns (uint256 windowTime) {\n        if(reserveA > 0 && reserveB > 0){\n            uint256 poolStake = (amountA.add(amountB)).mul(PARTS_PER_MILLION) / reserveA.add(reserveB);\n            // poolStake: 0.1% = 1000; 1=10000; 10% = 100000;\n            if(poolStake < 1000) {\n              windowTime = 30;\n            } else if (poolStake < 2500){\n              windowTime = 60;\n            } else if (poolStake < 5000){\n              windowTime = 90;\n            } else if (poolStake < 10000){\n              windowTime = 120;\n            } else {\n              windowTime = 150;\n            }\n            windowTime = windowTime <= maxWindowTime ? windowTime : maxWindowTime;\n        } else {\n            windowTime = maxWindowTime;\n        }\n    }\n\n    // Internal function to return the correct pair address on either DexSwap or Uniswap\n    function _pair(address tokenA, address tokenB, address factory) internal view returns (address pair) {\n      require(factory == dexSwapFactory || factory == uniswapFactory, 'DexSwapRelayer: INVALID_FACTORY');\n      if (tokenA == address(0)) tokenA = WETH;\n      pair = IDexSwapFactory(factory).getPair(tokenA, tokenB);\n    }\n\n    // Returns an OrderIndex that is used to reference liquidity orders\n    function _OrderIndex() internal returns(uint256 orderIndex){\n        orderIndex = orderCount;\n        orderCount++;\n    }\n    \n    // Allows the owner to withdraw any ERC20 from the relayer\n    function ERC20Withdraw(address token, uint256 amount) external {\n        require(msg.sender == owner, 'DexSwapRelayer: CALLER_NOT_OWNER');\n        TransferHelper.safeTransfer(token, owner, amount);\n    }\n\n    // Allows the owner to withdraw any ETH amount from the relayer\n    function ETHWithdraw(uint256 amount) external {\n        require(msg.sender == owner, 'DexSwapRelayer: CALLER_NOT_OWNER');\n        TransferHelper.safeTransferETH(owner, amount);\n    }\n\n    // Returns the data of one specific order\n    function GetOrderDetails(uint256 orderIndex) external view returns (Order memory) {\n      return orders[orderIndex];\n    }\n\n    receive() external payable {}\n}",
  "sourcePath": "/mnt/d/HARMONY/HARMONY_ONE-main/contracts-router/contracts/examples/DexSwapRelayer.sol",
  "compiler": {
    "name": "solc",
    "version": "0.6.12+commit.27d51765.Emscripten.clang"
  },
  "schemaVersion": "3.4.1",
  "updatedAt": "2021-12-21T09:13:23.707Z",
  "networkType": "ethereum",
  "devdoc": {
    "kind": "dev",
    "methods": {},
    "version": 1
  },
  "userdoc": {
    "kind": "user",
    "methods": {},
    "version": 1
  }
}