{
  "contractName": "ExampleSwapToPrice",
  "abi": [
    {
      "inputs": [
        {
          "internalType": "address",
          "name": "factory_",
          "type": "address"
        },
        {
          "internalType": "contract IDexSwapRouter",
          "name": "router_",
          "type": "address"
        }
      ],
      "stateMutability": "nonpayable",
      "type": "constructor"
    },
    {
      "inputs": [],
      "name": "factory",
      "outputs": [
        {
          "internalType": "address",
          "name": "",
          "type": "address"
        }
      ],
      "stateMutability": "view",
      "type": "function"
    },
    {
      "inputs": [],
      "name": "router",
      "outputs": [
        {
          "internalType": "contract IDexSwapRouter",
          "name": "",
          "type": "address"
        }
      ],
      "stateMutability": "view",
      "type": "function"
    },
    {
      "inputs": [
        {
          "internalType": "uint256",
          "name": "truePriceTokenA",
          "type": "uint256"
        },
        {
          "internalType": "uint256",
          "name": "truePriceTokenB",
          "type": "uint256"
        },
        {
          "internalType": "uint256",
          "name": "reserveA",
          "type": "uint256"
        },
        {
          "internalType": "uint256",
          "name": "reserveB",
          "type": "uint256"
        },
        {
          "internalType": "uint256",
          "name": "swapFee",
          "type": "uint256"
        }
      ],
      "name": "computeProfitMaximizingTrade",
      "outputs": [
        {
          "internalType": "bool",
          "name": "aToB",
          "type": "bool"
        },
        {
          "internalType": "uint256",
          "name": "amountIn",
          "type": "uint256"
        }
      ],
      "stateMutability": "pure",
      "type": "function"
    },
    {
      "inputs": [
        {
          "internalType": "address",
          "name": "tokenA",
          "type": "address"
        },
        {
          "internalType": "address",
          "name": "tokenB",
          "type": "address"
        },
        {
          "internalType": "uint256",
          "name": "truePriceTokenA",
          "type": "uint256"
        },
        {
          "internalType": "uint256",
          "name": "truePriceTokenB",
          "type": "uint256"
        },
        {
          "internalType": "uint256",
          "name": "maxSpendTokenA",
          "type": "uint256"
        },
        {
          "internalType": "uint256",
          "name": "maxSpendTokenB",
          "type": "uint256"
        },
        {
          "internalType": "address",
          "name": "to",
          "type": "address"
        },
        {
          "internalType": "uint256",
          "name": "deadline",
          "type": "uint256"
        }
      ],
      "name": "swapToPrice",
      "outputs": [],
      "stateMutability": "nonpayable",
      "type": "function"
    }
  ],
  "bytecode": "0x60c060405234801561001057600080fd5b50604051610de8380380610de88339818101604052604081101561003357600080fd5b5080516020909101516001600160601b0319606092831b811660a052911b1660805260805160601c60a05160601c610d56610092600039806102ba52806102eb52806105c752508061037c528061041f52806105eb5250610d566000f3fe608060405234801561001057600080fd5b506004361061004c5760003560e01c806398f1254a14610051578063bef90fd3146100a1578063c45a0155146100f8578063f887ea401461011c575b600080fd5b610086600480360360a081101561006757600080fd5b5080359060208101359060408101359060608101359060800135610124565b60408051921515835260208301919091528051918290030190f35b6100f660048036036101008110156100b857600080fd5b506001600160a01b038135811691602081013582169160408201359160608101359160808201359160a08101359160c0820135169060e001356101f2565b005b6101006105c5565b604080516001600160a01b039092168252519081900360200190f35b6101006105e9565b6000808684610133878961060d565b8161013a57fe5b04109150600061014a868661060d565b9050600061019d61017361016061271088610676565b8661016b578b61016d565b8a5b9061060d565b61019061271061016d88610187578c610189565b8d5b879061060d565b8161019757fe5b046106c6565b905060006101ad61271087610676565b856101c3576101be8861271061060d565b6101cf565b6101cf8961271061060d565b816101d657fe5b0490506101e38282610676565b93505050509550959350505050565b851580159061020057508415155b610251576040805162461bcd60e51b815260206004820152601e60248201527f4578616d706c6553776170546f50726963653a205a45524f5f50524943450000604482015290519081900360640190fd5b8315158061025e57508215155b6102af576040805162461bcd60e51b815260206004820152601e60248201527f4578616d706c6553776170546f50726963653a205a45524f5f5350454e440000604482015290519081900360640190fd5b6000806000806102e07f00000000000000000000000000000000000000000000000000000000000000008d8d610718565b9150915060006103117f00000000000000000000000000000000000000000000000000000000000000008e8e6107e6565b90506103208b8b858585610124565b8095508196505050505050600082610338578561033a565b865b905080821115610348578091505b600083610355578a610357565b8b5b9050600084610366578c610368565b8b5b905061037682333087610874565b6103a1827f0000000000000000000000000000000000000000000000000000000000000000866109d1565b604080516002808252606080830184529260208301908036833701905050905082816000815181106103cf57fe5b60200260200101906001600160a01b031690816001600160a01b03168152505081816001815181106103fd57fe5b60200260200101906001600160a01b031690816001600160a01b0316815250507f00000000000000000000000000000000000000000000000000000000000000006001600160a01b03166338ed1739866000848c8c6040518663ffffffff1660e01b81526004018086815260200185815260200180602001846001600160a01b03168152602001838152602001828103825285818151815260200191508051906020019060200280838360005b838110156104c25781810151838201526020016104aa565b505050509050019650505050505050600060405180830381600087803b1580156104eb57600080fd5b505af11580156104ff573d6000803e3d6000fd5b505050506040513d6000823e601f3d908101601f19168201604052602081101561052857600080fd5b810190808051604051939291908464010000000082111561054857600080fd5b90830190602082018581111561055d57600080fd5b825186602082028301116401000000008211171561057a57600080fd5b82525081516020918201928201910280838360005b838110156105a757818101518382015260200161058f565b50505050905001604052505050505050505050505050505050505050565b7f000000000000000000000000000000000000000000000000000000000000000081565b7f000000000000000000000000000000000000000000000000000000000000000081565b60008115806106285750508082028282828161062557fe5b04145b610670576040805162461bcd60e51b815260206004820152601460248201527364732d6d6174682d6d756c2d6f766572666c6f7760601b604482015290519081900360640190fd5b92915050565b80820382811115610670576040805162461bcd60e51b815260206004820152601560248201527464732d6d6174682d7375622d756e646572666c6f7760581b604482015290519081900360640190fd5b60006003821115610709575080600160028204015b81811015610703578091506002818285816106f257fe5b0401816106fb57fe5b0490506106db565b50610713565b8115610713575060015b919050565b60008060006107278585610b3b565b509050600080610738888888610c19565b6001600160a01b0316630902f1ac6040518163ffffffff1660e01b815260040160606040518083038186803b15801561077057600080fd5b505afa158015610784573d6000803e3d6000fd5b505050506040513d606081101561079a57600080fd5b5080516020909101516dffffffffffffffffffffffffffff91821693501690506001600160a01b03878116908416146107d45780826107d7565b81815b90999098509650505050505050565b6000806107f38484610b3b565b509050610801858585610c19565b6001600160a01b03166354cf2aeb6040518163ffffffff1660e01b815260040160206040518083038186803b15801561083957600080fd5b505afa15801561084d573d6000803e3d6000fd5b505050506040513d602081101561086357600080fd5b505163ffffffff1695945050505050565b604080516001600160a01b0385811660248301528481166044830152606480830185905283518084039091018152608490920183526020820180516001600160e01b03166323b872dd60e01b17815292518251600094606094938a169392918291908083835b602083106108f95780518252601f1990920191602091820191016108da565b6001836020036101000a0380198251168184511680821785525050505050509050019150506000604051808303816000865af19150503d806000811461095b576040519150601f19603f3d011682016040523d82523d6000602084013e610960565b606091505b509150915081801561098e57508051158061098e575080806020019051602081101561098b57600080fd5b50515b6109c95760405162461bcd60e51b8152600401808060200182810382526024815260200180610cfd6024913960400191505060405180910390fd5b505050505050565b604080516001600160a01b038481166024830152604480830185905283518084039091018152606490920183526020820180516001600160e01b031663095ea7b360e01b178152925182516000946060949389169392918291908083835b60208310610a4e5780518252601f199092019160209182019101610a2f565b6001836020036101000a0380198251168184511680821785525050505050509050019150506000604051808303816000865af19150503d8060008114610ab0576040519150601f19603f3d011682016040523d82523d6000602084013e610ab5565b606091505b5091509150818015610ae3575080511580610ae35750808060200190516020811015610ae057600080fd5b50515b610b34576040805162461bcd60e51b815260206004820152601e60248201527f5472616e7366657248656c7065723a20415050524f56455f4641494c45440000604482015290519081900360640190fd5b5050505050565b600080826001600160a01b0316846001600160a01b03161415610b8f5760405162461bcd60e51b8152600401808060200182810382526023815260200180610cda6023913960400191505060405180910390fd5b826001600160a01b0316846001600160a01b031610610baf578284610bb2565b83835b90925090506001600160a01b038216610c12576040805162461bcd60e51b815260206004820152601c60248201527f446578537761704c6962726172793a205a45524f5f4144445245535300000000604482015290519081900360640190fd5b9250929050565b6000806000610c288585610b3b565b604080516bffffffffffffffffffffffff19606094851b811660208084019190915293851b81166034830152825160288184030181526048830184528051908501206001600160f81b031960688401529a90941b9093166069840152607d8301989098527f2f84bfc2d5814eb78c2edc1ee128b9e6c81836cc067b96f9bb51c2bbcc830296609d808401919091528851808403909101815260bd90920190975280519601959095209594505050505056fe446578537761704c6962726172793a204944454e544943414c5f4144445245535345535472616e7366657248656c7065723a205452414e534645525f46524f4d5f4641494c4544a26469706673582212205def6d4b79e20ba0d68a3ec8859e1b5feb6d1c3ed1397bf651cab8b16e468d4664736f6c634300060c0033",
  "immutableReferences": {
    "5357": [
      {
        "length": 32,
        "start": 892
      },
      {
        "length": 32,
        "start": 1055
      },
      {
        "length": 32,
        "start": 1515
      }
    ],
    "5359": [
      {
        "length": 32,
        "start": 698
      },
      {
        "length": 32,
        "start": 747
      },
      {
        "length": 32,
        "start": 1479
      }
    ]
  },
  "source": "// SPDX-License-Identifier: GPL-3.0\npragma solidity ^0.6.6  ;\n\nimport '../interfaces/IDexSwapPair.sol';\n\nimport '../libraries/Babylonian.sol';\nimport '../libraries/TransferHelper.sol';\nimport '../interfaces/IERC20.sol';\nimport '../interfaces/IDexSwapRouter.sol';\nimport '../libraries/SafeMath.sol';\nimport '../libraries/DexSwapLibrary.sol';\n\ncontract ExampleSwapToPrice {\n    using SafeMath for uint256;\n\n    IDexSwapRouter public immutable router;\n    address public immutable factory;\n\n    constructor(address factory_, IDexSwapRouter router_) public {\n        factory = factory_;\n        router = router_;\n    }\n\n    // computes the direction and magnitude of the profit-maximizing trade\n    function computeProfitMaximizingTrade(\n        uint256 truePriceTokenA,\n        uint256 truePriceTokenB,\n        uint256 reserveA,\n        uint256 reserveB,\n        uint256 swapFee\n    ) pure public returns (bool aToB, uint256 amountIn) {\n        aToB = reserveA.mul(truePriceTokenB) / reserveB < truePriceTokenA;\n\n        uint256 invariant = reserveA.mul(reserveB);\n\n        uint256 leftSide = Babylonian.sqrt(\n            invariant.mul(aToB ? truePriceTokenA : truePriceTokenB).mul(10000) /\n            uint256(aToB ? truePriceTokenB : truePriceTokenA).mul(uint(10000).sub(swapFee))\n        );\n        uint256 rightSide = (aToB ? reserveA.mul(10000) : reserveB.mul(10000)) / uint(10000).sub(swapFee);\n\n        // compute the amount that must be sent to move the price to the profit-maximizing price\n        amountIn = leftSide.sub(rightSide);\n    }\n\n    // swaps an amount of either token such that the trade is profit-maximizing, given an external true price\n    // true price is expressed in the ratio of token A to token B\n    // caller must approve this contract to spend whichever token is intended to be swapped\n    function swapToPrice(\n        address tokenA,\n        address tokenB,\n        uint256 truePriceTokenA,\n        uint256 truePriceTokenB,\n        uint256 maxSpendTokenA,\n        uint256 maxSpendTokenB,\n        address to,\n        uint256 deadline\n    ) public {\n        // true price is expressed as a ratio, so both values must be non-zero\n        require(truePriceTokenA != 0 && truePriceTokenB != 0, \"ExampleSwapToPrice: ZERO_PRICE\");\n        // caller can specify 0 for either if they wish to swap in only one direction, but not both\n        require(maxSpendTokenA != 0 || maxSpendTokenB != 0, \"ExampleSwapToPrice: ZERO_SPEND\");\n\n        bool aToB;\n        uint256 amountIn;\n        {\n            (uint256 reserveA, uint256 reserveB) = DexSwapLibrary.getReserves(factory, tokenA, tokenB);\n            uint256 swapFee = DexSwapLibrary.getSwapFee(factory, tokenA, tokenB);\n            (aToB, amountIn) = computeProfitMaximizingTrade(\n                truePriceTokenA, truePriceTokenB,\n                reserveA, reserveB, swapFee\n            );\n        }\n\n        // spend up to the allowance of the token in\n        uint256 maxSpend = aToB ? maxSpendTokenA : maxSpendTokenB;\n        if (amountIn > maxSpend) {\n            amountIn = maxSpend;\n        }\n\n        address tokenIn = aToB ? tokenA : tokenB;\n        address tokenOut = aToB ? tokenB : tokenA;\n        TransferHelper.safeTransferFrom(tokenIn, msg.sender, address(this), amountIn);\n        TransferHelper.safeApprove(tokenIn, address(router), amountIn);\n\n        address[] memory path = new address[](2);\n        path[0] = tokenIn;\n        path[1] = tokenOut;\n\n        router.swapExactTokensForTokens(\n            amountIn,\n            0, // amountOutMin: we can skip computing this number because the math is tested\n            path,\n            to,\n            deadline\n        );\n    }\n}\n",
  "sourcePath": "/mnt/d/HARMONY/HARMONY_ONE-main/contracts-router/contracts/examples/ExampleSwapToPrice.sol",
  "compiler": {
    "name": "solc",
    "version": "0.6.12+commit.27d51765.Emscripten.clang"
  },
  "schemaVersion": "3.4.1",
  "updatedAt": "2021-12-21T01:16:36.246Z",
  "devdoc": {
    "kind": "dev",
    "methods": {},
    "version": 1
  },
  "userdoc": {
    "kind": "user",
    "methods": {},
    "version": 1
  }
}